{
	"EnglishAuction.sol": {
		"EnglishAuction": {
			"abi": [
				{
					"inputs": [
						{
							"internalType": "address",
							"name": "_nft",
							"type": "address"
						},
						{
							"internalType": "uint256",
							"name": "_nftId",
							"type": "uint256"
						},
						{
							"internalType": "uint256",
							"name": "_startingBid",
							"type": "uint256"
						}
					],
					"stateMutability": "nonpayable",
					"type": "constructor"
				},
				{
					"anonymous": false,
					"inputs": [
						{
							"indexed": true,
							"internalType": "address",
							"name": "sender",
							"type": "address"
						},
						{
							"indexed": false,
							"internalType": "uint256",
							"name": "amount",
							"type": "uint256"
						}
					],
					"name": "Bid",
					"type": "event"
				},
				{
					"anonymous": false,
					"inputs": [
						{
							"indexed": false,
							"internalType": "address",
							"name": "winner",
							"type": "address"
						},
						{
							"indexed": false,
							"internalType": "uint256",
							"name": "amount",
							"type": "uint256"
						}
					],
					"name": "End",
					"type": "event"
				},
				{
					"anonymous": false,
					"inputs": [],
					"name": "Start",
					"type": "event"
				},
				{
					"anonymous": false,
					"inputs": [
						{
							"indexed": true,
							"internalType": "address",
							"name": "bidder",
							"type": "address"
						},
						{
							"indexed": false,
							"internalType": "uint256",
							"name": "amount",
							"type": "uint256"
						}
					],
					"name": "Withdraw",
					"type": "event"
				},
				{
					"inputs": [],
					"name": "bid",
					"outputs": [],
					"stateMutability": "payable",
					"type": "function"
				},
				{
					"inputs": [
						{
							"internalType": "address",
							"name": "",
							"type": "address"
						}
					],
					"name": "bids",
					"outputs": [
						{
							"internalType": "uint256",
							"name": "",
							"type": "uint256"
						}
					],
					"stateMutability": "view",
					"type": "function"
				},
				{
					"inputs": [],
					"name": "end",
					"outputs": [],
					"stateMutability": "nonpayable",
					"type": "function"
				},
				{
					"inputs": [],
					"name": "endAt",
					"outputs": [
						{
							"internalType": "uint256",
							"name": "",
							"type": "uint256"
						}
					],
					"stateMutability": "view",
					"type": "function"
				},
				{
					"inputs": [],
					"name": "ended",
					"outputs": [
						{
							"internalType": "bool",
							"name": "",
							"type": "bool"
						}
					],
					"stateMutability": "view",
					"type": "function"
				},
				{
					"inputs": [],
					"name": "highestBid",
					"outputs": [
						{
							"internalType": "uint256",
							"name": "",
							"type": "uint256"
						}
					],
					"stateMutability": "view",
					"type": "function"
				},
				{
					"inputs": [],
					"name": "highestBidder",
					"outputs": [
						{
							"internalType": "address",
							"name": "",
							"type": "address"
						}
					],
					"stateMutability": "view",
					"type": "function"
				},
				{
					"inputs": [],
					"name": "nft",
					"outputs": [
						{
							"internalType": "contract IERC721",
							"name": "",
							"type": "address"
						}
					],
					"stateMutability": "view",
					"type": "function"
				},
				{
					"inputs": [],
					"name": "nftId",
					"outputs": [
						{
							"internalType": "uint256",
							"name": "",
							"type": "uint256"
						}
					],
					"stateMutability": "view",
					"type": "function"
				},
				{
					"inputs": [],
					"name": "seller",
					"outputs": [
						{
							"internalType": "address payable",
							"name": "",
							"type": "address"
						}
					],
					"stateMutability": "view",
					"type": "function"
				},
				{
					"inputs": [],
					"name": "start",
					"outputs": [],
					"stateMutability": "nonpayable",
					"type": "function"
				},
				{
					"inputs": [],
					"name": "started",
					"outputs": [
						{
							"internalType": "bool",
							"name": "",
							"type": "bool"
						}
					],
					"stateMutability": "view",
					"type": "function"
				},
				{
					"inputs": [],
					"name": "withdraw",
					"outputs": [],
					"stateMutability": "nonpayable",
					"type": "function"
				}
			],
			"devdoc": {
				"kind": "dev",
				"methods": {},
				"version": 1
			},
			"evm": {
				"assembly": "    /* \"EnglishAuction.sol\":231:2328  contract EnglishAuction {... */\n  mstore(0x40, 0x80)\n    /* \"EnglishAuction.sol\":712:910  constructor(address _nft, uint _nftId, uint _startingBid) {... */\n  callvalue\n  dup1\n  iszero\n  tag_1\n  jumpi\n  0x00\n  dup1\n  revert\ntag_1:\n  pop\n  mload(0x40)\n  sub(codesize, bytecodeSize)\n  dup1\n  bytecodeSize\n  dup4\n  codecopy\n  dup2\n  dup2\n  add\n  0x40\n  mstore\n  dup2\n  add\n  swap1\n  tag_2\n  swap2\n  swap1\n  tag_3\n  jump\t// in\ntag_2:\n    /* \"EnglishAuction.sol\":795:799  _nft */\n  dup3\n    /* \"EnglishAuction.sol\":781:784  nft */\n  0x00\n  dup1\n    /* \"EnglishAuction.sol\":781:800  nft = IERC721(_nft) */\n  0x0100\n  exp\n  dup2\n  sload\n  dup2\n  0xffffffffffffffffffffffffffffffffffffffff\n  mul\n  not\n  and\n  swap1\n  dup4\n  0xffffffffffffffffffffffffffffffffffffffff\n  and\n  mul\n  or\n  swap1\n  sstore\n  pop\n    /* \"EnglishAuction.sol\":819:825  _nftId */\n  dup2\n    /* \"EnglishAuction.sol\":811:816  nftId */\n  0x01\n    /* \"EnglishAuction.sol\":811:825  nftId = _nftId */\n  dup2\n  swap1\n  sstore\n  pop\n    /* \"EnglishAuction.sol\":855:865  msg.sender */\n  caller\n    /* \"EnglishAuction.sol\":838:844  seller */\n  0x02\n  0x00\n    /* \"EnglishAuction.sol\":838:866  seller = payable(msg.sender) */\n  0x0100\n  exp\n  dup2\n  sload\n  dup2\n  0xffffffffffffffffffffffffffffffffffffffff\n  mul\n  not\n  and\n  swap1\n  dup4\n  0xffffffffffffffffffffffffffffffffffffffff\n  and\n  mul\n  or\n  swap1\n  sstore\n  pop\n    /* \"EnglishAuction.sol\":890:902  _startingBid */\n  dup1\n    /* \"EnglishAuction.sol\":877:887  highestBid */\n  0x05\n    /* \"EnglishAuction.sol\":877:902  highestBid = _startingBid */\n  dup2\n  swap1\n  sstore\n  pop\n    /* \"EnglishAuction.sol\":712:910  constructor(address _nft, uint _nftId, uint _startingBid) {... */\n  pop\n  pop\n  pop\n    /* \"EnglishAuction.sol\":231:2328  contract EnglishAuction {... */\n  jump(tag_6)\n    /* \"#utility.yul\":88:205   */\ntag_8:\n    /* \"#utility.yul\":197:198   */\n  0x00\n    /* \"#utility.yul\":194:195   */\n  dup1\n    /* \"#utility.yul\":187:199   */\n  revert\n    /* \"#utility.yul\":334:460   */\ntag_10:\n    /* \"#utility.yul\":371:378   */\n  0x00\n    /* \"#utility.yul\":411:453   */\n  0xffffffffffffffffffffffffffffffffffffffff\n    /* \"#utility.yul\":404:409   */\n  dup3\n    /* \"#utility.yul\":400:454   */\n  and\n    /* \"#utility.yul\":389:454   */\n  swap1\n  pop\n    /* \"#utility.yul\":334:460   */\n  swap2\n  swap1\n  pop\n  jump\t// out\n    /* \"#utility.yul\":466:562   */\ntag_11:\n    /* \"#utility.yul\":503:510   */\n  0x00\n    /* \"#utility.yul\":532:556   */\n  tag_23\n    /* \"#utility.yul\":550:555   */\n  dup3\n    /* \"#utility.yul\":532:556   */\n  tag_10\n  jump\t// in\ntag_23:\n    /* \"#utility.yul\":521:556   */\n  swap1\n  pop\n    /* \"#utility.yul\":466:562   */\n  swap2\n  swap1\n  pop\n  jump\t// out\n    /* \"#utility.yul\":568:690   */\ntag_12:\n    /* \"#utility.yul\":641:665   */\n  tag_25\n    /* \"#utility.yul\":659:664   */\n  dup2\n    /* \"#utility.yul\":641:665   */\n  tag_11\n  jump\t// in\ntag_25:\n    /* \"#utility.yul\":634:639   */\n  dup2\n    /* \"#utility.yul\":631:666   */\n  eq\n    /* \"#utility.yul\":621:684   */\n  tag_26\n  jumpi\n    /* \"#utility.yul\":680:681   */\n  0x00\n    /* \"#utility.yul\":677:678   */\n  dup1\n    /* \"#utility.yul\":670:682   */\n  revert\n    /* \"#utility.yul\":621:684   */\ntag_26:\n    /* \"#utility.yul\":568:690   */\n  pop\n  jump\t// out\n    /* \"#utility.yul\":696:839   */\ntag_13:\n    /* \"#utility.yul\":753:758   */\n  0x00\n    /* \"#utility.yul\":784:790   */\n  dup2\n    /* \"#utility.yul\":778:791   */\n  mload\n    /* \"#utility.yul\":769:791   */\n  swap1\n  pop\n    /* \"#utility.yul\":800:833   */\n  tag_28\n    /* \"#utility.yul\":827:832   */\n  dup2\n    /* \"#utility.yul\":800:833   */\n  tag_12\n  jump\t// in\ntag_28:\n    /* \"#utility.yul\":696:839   */\n  swap3\n  swap2\n  pop\n  pop\n  jump\t// out\n    /* \"#utility.yul\":845:922   */\ntag_14:\n    /* \"#utility.yul\":882:889   */\n  0x00\n    /* \"#utility.yul\":911:916   */\n  dup2\n    /* \"#utility.yul\":900:916   */\n  swap1\n  pop\n    /* \"#utility.yul\":845:922   */\n  swap2\n  swap1\n  pop\n  jump\t// out\n    /* \"#utility.yul\":928:1050   */\ntag_15:\n    /* \"#utility.yul\":1001:1025   */\n  tag_31\n    /* \"#utility.yul\":1019:1024   */\n  dup2\n    /* \"#utility.yul\":1001:1025   */\n  tag_14\n  jump\t// in\ntag_31:\n    /* \"#utility.yul\":994:999   */\n  dup2\n    /* \"#utility.yul\":991:1026   */\n  eq\n    /* \"#utility.yul\":981:1044   */\n  tag_32\n  jumpi\n    /* \"#utility.yul\":1040:1041   */\n  0x00\n    /* \"#utility.yul\":1037:1038   */\n  dup1\n    /* \"#utility.yul\":1030:1042   */\n  revert\n    /* \"#utility.yul\":981:1044   */\ntag_32:\n    /* \"#utility.yul\":928:1050   */\n  pop\n  jump\t// out\n    /* \"#utility.yul\":1056:1199   */\ntag_16:\n    /* \"#utility.yul\":1113:1118   */\n  0x00\n    /* \"#utility.yul\":1144:1150   */\n  dup2\n    /* \"#utility.yul\":1138:1151   */\n  mload\n    /* \"#utility.yul\":1129:1151   */\n  swap1\n  pop\n    /* \"#utility.yul\":1160:1193   */\n  tag_34\n    /* \"#utility.yul\":1187:1192   */\n  dup2\n    /* \"#utility.yul\":1160:1193   */\n  tag_15\n  jump\t// in\ntag_34:\n    /* \"#utility.yul\":1056:1199   */\n  swap3\n  swap2\n  pop\n  pop\n  jump\t// out\n    /* \"#utility.yul\":1205:1868   */\ntag_3:\n    /* \"#utility.yul\":1293:1299   */\n  0x00\n    /* \"#utility.yul\":1301:1307   */\n  dup1\n    /* \"#utility.yul\":1309:1315   */\n  0x00\n    /* \"#utility.yul\":1358:1360   */\n  0x60\n    /* \"#utility.yul\":1346:1355   */\n  dup5\n    /* \"#utility.yul\":1337:1344   */\n  dup7\n    /* \"#utility.yul\":1333:1356   */\n  sub\n    /* \"#utility.yul\":1329:1361   */\n  slt\n    /* \"#utility.yul\":1326:1445   */\n  iszero\n  tag_36\n  jumpi\n    /* \"#utility.yul\":1364:1443   */\n  tag_37\n  tag_8\n  jump\t// in\ntag_37:\n    /* \"#utility.yul\":1326:1445   */\ntag_36:\n    /* \"#utility.yul\":1484:1485   */\n  0x00\n    /* \"#utility.yul\":1509:1573   */\n  tag_38\n    /* \"#utility.yul\":1565:1572   */\n  dup7\n    /* \"#utility.yul\":1556:1562   */\n  dup3\n    /* \"#utility.yul\":1545:1554   */\n  dup8\n    /* \"#utility.yul\":1541:1563   */\n  add\n    /* \"#utility.yul\":1509:1573   */\n  tag_13\n  jump\t// in\ntag_38:\n    /* \"#utility.yul\":1499:1573   */\n  swap4\n  pop\n    /* \"#utility.yul\":1455:1583   */\n  pop\n    /* \"#utility.yul\":1622:1624   */\n  0x20\n    /* \"#utility.yul\":1648:1712   */\n  tag_39\n    /* \"#utility.yul\":1704:1711   */\n  dup7\n    /* \"#utility.yul\":1695:1701   */\n  dup3\n    /* \"#utility.yul\":1684:1693   */\n  dup8\n    /* \"#utility.yul\":1680:1702   */\n  add\n    /* \"#utility.yul\":1648:1712   */\n  tag_16\n  jump\t// in\ntag_39:\n    /* \"#utility.yul\":1638:1712   */\n  swap3\n  pop\n    /* \"#utility.yul\":1593:1722   */\n  pop\n    /* \"#utility.yul\":1761:1763   */\n  0x40\n    /* \"#utility.yul\":1787:1851   */\n  tag_40\n    /* \"#utility.yul\":1843:1850   */\n  dup7\n    /* \"#utility.yul\":1834:1840   */\n  dup3\n    /* \"#utility.yul\":1823:1832   */\n  dup8\n    /* \"#utility.yul\":1819:1841   */\n  add\n    /* \"#utility.yul\":1787:1851   */\n  tag_16\n  jump\t// in\ntag_40:\n    /* \"#utility.yul\":1777:1851   */\n  swap2\n  pop\n    /* \"#utility.yul\":1732:1861   */\n  pop\n    /* \"#utility.yul\":1205:1868   */\n  swap3\n  pop\n  swap3\n  pop\n  swap3\n  jump\t// out\n    /* \"EnglishAuction.sol\":231:2328  contract EnglishAuction {... */\ntag_6:\n  dataSize(sub_0)\n  dup1\n  dataOffset(sub_0)\n  0x00\n  codecopy\n  0x00\n  return\nstop\n\nsub_0: assembly {\n        /* \"EnglishAuction.sol\":231:2328  contract EnglishAuction {... */\n      mstore(0x40, 0x80)\n      jumpi(tag_1, lt(calldatasize, 0x04))\n      shr(0xe0, calldataload(0x00))\n      dup1\n      0x62ea82db\n      gt\n      tag_15\n      jumpi\n      dup1\n      0xbe9a6555\n      gt\n      tag_16\n      jumpi\n      dup1\n      0xbe9a6555\n      eq\n      tag_11\n      jumpi\n      dup1\n      0xc6bc5182\n      eq\n      tag_12\n      jumpi\n      dup1\n      0xd57bde79\n      eq\n      tag_13\n      jumpi\n      dup1\n      0xefbe1c1c\n      eq\n      tag_14\n      jumpi\n      jump(tag_1)\n    tag_16:\n      dup1\n      0x62ea82db\n      eq\n      tag_8\n      jumpi\n      dup1\n      0x7cc3ae8c\n      eq\n      tag_9\n      jumpi\n      dup1\n      0x91f90157\n      eq\n      tag_10\n      jumpi\n      jump(tag_1)\n    tag_15:\n      dup1\n      0x08551a53\n      eq\n      tag_2\n      jumpi\n      dup1\n      0x12fa6feb\n      eq\n      tag_3\n      jumpi\n      dup1\n      0x1998aeef\n      eq\n      tag_4\n      jumpi\n      dup1\n      0x1f2698ab\n      eq\n      tag_5\n      jumpi\n      dup1\n      0x3ccfd60b\n      eq\n      tag_6\n      jumpi\n      dup1\n      0x47ccca02\n      eq\n      tag_7\n      jumpi\n    tag_1:\n      0x00\n      dup1\n      revert\n        /* \"EnglishAuction.sol\":491:520  address payable public seller */\n    tag_2:\n      callvalue\n      dup1\n      iszero\n      tag_17\n      jumpi\n      0x00\n      dup1\n      revert\n    tag_17:\n      pop\n      tag_18\n      tag_19\n      jump\t// in\n    tag_18:\n      mload(0x40)\n      tag_20\n      swap2\n      swap1\n      tag_21\n      jump\t// in\n    tag_20:\n      mload(0x40)\n      dup1\n      swap2\n      sub\n      swap1\n      return\n        /* \"EnglishAuction.sol\":577:594  bool public ended */\n    tag_3:\n      callvalue\n      dup1\n      iszero\n      tag_22\n      jumpi\n      0x00\n      dup1\n      revert\n    tag_22:\n      pop\n      tag_23\n      tag_24\n      jump\t// in\n    tag_23:\n      mload(0x40)\n      tag_25\n      swap2\n      swap1\n      tag_26\n      jump\t// in\n    tag_25:\n      mload(0x40)\n      dup1\n      swap2\n      sub\n      swap1\n      return\n        /* \"EnglishAuction.sol\":1209:1625  function bid() external payable {... */\n    tag_4:\n      tag_27\n      tag_28\n      jump\t// in\n    tag_27:\n      stop\n        /* \"EnglishAuction.sol\":551:570  bool public started */\n    tag_5:\n      callvalue\n      dup1\n      iszero\n      tag_29\n      jumpi\n      0x00\n      dup1\n      revert\n    tag_29:\n      pop\n      tag_30\n      tag_31\n      jump\t// in\n    tag_30:\n      mload(0x40)\n      tag_32\n      swap2\n      swap1\n      tag_26\n      jump\t// in\n    tag_32:\n      mload(0x40)\n      dup1\n      swap2\n      sub\n      swap1\n      return\n        /* \"EnglishAuction.sol\":1633:1826  function withdraw() external {... */\n    tag_6:\n      callvalue\n      dup1\n      iszero\n      tag_33\n      jumpi\n      0x00\n      dup1\n      revert\n    tag_33:\n      pop\n      tag_34\n      tag_35\n      jump\t// in\n    tag_34:\n      stop\n        /* \"EnglishAuction.sol\":440:458  IERC721 public nft */\n    tag_7:\n      callvalue\n      dup1\n      iszero\n      tag_36\n      jumpi\n      0x00\n      dup1\n      revert\n    tag_36:\n      pop\n      tag_37\n      tag_38\n      jump\t// in\n    tag_37:\n      mload(0x40)\n      tag_39\n      swap2\n      swap1\n      tag_40\n      jump\t// in\n    tag_39:\n      mload(0x40)\n      dup1\n      swap2\n      sub\n      swap1\n      return\n        /* \"EnglishAuction.sol\":667:703  mapping(address => uint) public bids */\n    tag_8:\n      callvalue\n      dup1\n      iszero\n      tag_41\n      jumpi\n      0x00\n      dup1\n      revert\n    tag_41:\n      pop\n      tag_42\n      0x04\n      dup1\n      calldatasize\n      sub\n      dup2\n      add\n      swap1\n      tag_43\n      swap2\n      swap1\n      tag_44\n      jump\t// in\n    tag_43:\n      tag_45\n      jump\t// in\n    tag_42:\n      mload(0x40)\n      tag_46\n      swap2\n      swap1\n      tag_47\n      jump\t// in\n    tag_46:\n      mload(0x40)\n      dup1\n      swap2\n      sub\n      swap1\n      return\n        /* \"EnglishAuction.sol\":527:544  uint public endAt */\n    tag_9:\n      callvalue\n      dup1\n      iszero\n      tag_48\n      jumpi\n      0x00\n      dup1\n      revert\n    tag_48:\n      pop\n      tag_49\n      tag_50\n      jump\t// in\n    tag_49:\n      mload(0x40)\n      tag_51\n      swap2\n      swap1\n      tag_47\n      jump\t// in\n    tag_51:\n      mload(0x40)\n      dup1\n      swap2\n      sub\n      swap1\n      return\n        /* \"EnglishAuction.sol\":603:631  address public highestBidder */\n    tag_10:\n      callvalue\n      dup1\n      iszero\n      tag_52\n      jumpi\n      0x00\n      dup1\n      revert\n    tag_52:\n      pop\n      tag_53\n      tag_54\n      jump\t// in\n    tag_53:\n      mload(0x40)\n      tag_55\n      swap2\n      swap1\n      tag_56\n      jump\t// in\n    tag_55:\n      mload(0x40)\n      dup1\n      swap2\n      sub\n      swap1\n      return\n        /* \"EnglishAuction.sol\":918:1201  function start() external {... */\n    tag_11:\n      callvalue\n      dup1\n      iszero\n      tag_57\n      jumpi\n      0x00\n      dup1\n      revert\n    tag_57:\n      pop\n      tag_58\n      tag_59\n      jump\t// in\n    tag_58:\n      stop\n        /* \"EnglishAuction.sol\":465:482  uint public nftId */\n    tag_12:\n      callvalue\n      dup1\n      iszero\n      tag_60\n      jumpi\n      0x00\n      dup1\n      revert\n    tag_60:\n      pop\n      tag_61\n      tag_62\n      jump\t// in\n    tag_61:\n      mload(0x40)\n      tag_63\n      swap2\n      swap1\n      tag_47\n      jump\t// in\n    tag_63:\n      mload(0x40)\n      dup1\n      swap2\n      sub\n      swap1\n      return\n        /* \"EnglishAuction.sol\":638:660  uint public highestBid */\n    tag_13:\n      callvalue\n      dup1\n      iszero\n      tag_64\n      jumpi\n      0x00\n      dup1\n      revert\n    tag_64:\n      pop\n      tag_65\n      tag_66\n      jump\t// in\n    tag_65:\n      mload(0x40)\n      tag_67\n      swap2\n      swap1\n      tag_47\n      jump\t// in\n    tag_67:\n      mload(0x40)\n      dup1\n      swap2\n      sub\n      swap1\n      return\n        /* \"EnglishAuction.sol\":1834:2325  function end() external {... */\n    tag_14:\n      callvalue\n      dup1\n      iszero\n      tag_68\n      jumpi\n      0x00\n      dup1\n      revert\n    tag_68:\n      pop\n      tag_69\n      tag_70\n      jump\t// in\n    tag_69:\n      stop\n        /* \"EnglishAuction.sol\":491:520  address payable public seller */\n    tag_19:\n      0x02\n      0x00\n      swap1\n      sload\n      swap1\n      0x0100\n      exp\n      swap1\n      div\n      0xffffffffffffffffffffffffffffffffffffffff\n      and\n      dup2\n      jump\t// out\n        /* \"EnglishAuction.sol\":577:594  bool public ended */\n    tag_24:\n      0x04\n      0x01\n      swap1\n      sload\n      swap1\n      0x0100\n      exp\n      swap1\n      div\n      0xff\n      and\n      dup2\n      jump\t// out\n        /* \"EnglishAuction.sol\":1209:1625  function bid() external payable {... */\n    tag_28:\n        /* \"EnglishAuction.sol\":1260:1267  started */\n      0x04\n      0x00\n      swap1\n      sload\n      swap1\n      0x0100\n      exp\n      swap1\n      div\n      0xff\n      and\n        /* \"EnglishAuction.sol\":1252:1283  require(started, \"not started\") */\n      tag_72\n      jumpi\n      mload(0x40)\n      0x08c379a000000000000000000000000000000000000000000000000000000000\n      dup2\n      mstore\n      0x04\n      add\n      tag_73\n      swap1\n      tag_74\n      jump\t// in\n    tag_73:\n      mload(0x40)\n      dup1\n      swap2\n      sub\n      swap1\n      revert\n    tag_72:\n        /* \"EnglishAuction.sol\":1320:1325  endAt */\n      sload(0x03)\n        /* \"EnglishAuction.sol\":1302:1317  block.timestamp */\n      timestamp\n        /* \"EnglishAuction.sol\":1302:1325  block.timestamp < endAt */\n      lt\n        /* \"EnglishAuction.sol\":1294:1335  require(block.timestamp < endAt, \"ended\") */\n      tag_75\n      jumpi\n      mload(0x40)\n      0x08c379a000000000000000000000000000000000000000000000000000000000\n      dup2\n      mstore\n      0x04\n      add\n      tag_76\n      swap1\n      tag_77\n      jump\t// in\n    tag_76:\n      mload(0x40)\n      dup1\n      swap2\n      sub\n      swap1\n      revert\n    tag_75:\n        /* \"EnglishAuction.sol\":1366:1376  highestBid */\n      sload(0x05)\n        /* \"EnglishAuction.sol\":1354:1363  msg.value */\n      callvalue\n        /* \"EnglishAuction.sol\":1354:1376  msg.value > highestBid */\n      gt\n        /* \"EnglishAuction.sol\":1346:1396  require(msg.value > highestBid, \"value < highest\") */\n      tag_78\n      jumpi\n      mload(0x40)\n      0x08c379a000000000000000000000000000000000000000000000000000000000\n      dup2\n      mstore\n      0x04\n      add\n      tag_79\n      swap1\n      tag_80\n      jump\t// in\n    tag_79:\n      mload(0x40)\n      dup1\n      swap2\n      sub\n      swap1\n      revert\n    tag_78:\n        /* \"EnglishAuction.sol\":1438:1439  0 */\n      0x00\n        /* \"EnglishAuction.sol\":1413:1440  highestBidder != address(0) */\n      0xffffffffffffffffffffffffffffffffffffffff\n      and\n        /* \"EnglishAuction.sol\":1413:1426  highestBidder */\n      0x04\n      0x02\n      swap1\n      sload\n      swap1\n      0x0100\n      exp\n      swap1\n      div\n      0xffffffffffffffffffffffffffffffffffffffff\n      and\n        /* \"EnglishAuction.sol\":1413:1440  highestBidder != address(0) */\n      0xffffffffffffffffffffffffffffffffffffffff\n      and\n      eq\n        /* \"EnglishAuction.sol\":1409:1502  if (highestBidder != address(0)) {... */\n      tag_81\n      jumpi\n        /* \"EnglishAuction.sol\":1480:1490  highestBid */\n      sload(0x05)\n        /* \"EnglishAuction.sol\":1457:1461  bids */\n      0x06\n        /* \"EnglishAuction.sol\":1457:1476  bids[highestBidder] */\n      0x00\n        /* \"EnglishAuction.sol\":1462:1475  highestBidder */\n      0x04\n      0x02\n      swap1\n      sload\n      swap1\n      0x0100\n      exp\n      swap1\n      div\n      0xffffffffffffffffffffffffffffffffffffffff\n      and\n        /* \"EnglishAuction.sol\":1457:1476  bids[highestBidder] */\n      0xffffffffffffffffffffffffffffffffffffffff\n      and\n      0xffffffffffffffffffffffffffffffffffffffff\n      and\n      dup2\n      mstore\n      0x20\n      add\n      swap1\n      dup2\n      mstore\n      0x20\n      add\n      0x00\n      keccak256\n      0x00\n        /* \"EnglishAuction.sol\":1457:1490  bids[highestBidder] += highestBid */\n      dup3\n      dup3\n      sload\n      tag_82\n      swap2\n      swap1\n      tag_83\n      jump\t// in\n    tag_82:\n      swap3\n      pop\n      pop\n      dup2\n      swap1\n      sstore\n      pop\n        /* \"EnglishAuction.sol\":1409:1502  if (highestBidder != address(0)) {... */\n    tag_81:\n        /* \"EnglishAuction.sol\":1530:1540  msg.sender */\n      caller\n        /* \"EnglishAuction.sol\":1514:1527  highestBidder */\n      0x04\n      0x02\n        /* \"EnglishAuction.sol\":1514:1540  highestBidder = msg.sender */\n      0x0100\n      exp\n      dup2\n      sload\n      dup2\n      0xffffffffffffffffffffffffffffffffffffffff\n      mul\n      not\n      and\n      swap1\n      dup4\n      0xffffffffffffffffffffffffffffffffffffffff\n      and\n      mul\n      or\n      swap1\n      sstore\n      pop\n        /* \"EnglishAuction.sol\":1564:1573  msg.value */\n      callvalue\n        /* \"EnglishAuction.sol\":1551:1561  highestBid */\n      0x05\n        /* \"EnglishAuction.sol\":1551:1573  highestBid = msg.value */\n      dup2\n      swap1\n      sstore\n      pop\n        /* \"EnglishAuction.sol\":1595:1605  msg.sender */\n      caller\n        /* \"EnglishAuction.sol\":1591:1617  Bid(msg.sender, msg.value) */\n      0xffffffffffffffffffffffffffffffffffffffff\n      and\n      0xe684a55f31b79eca403df938249029212a5925ec6be8012e099b45bc1019e5d2\n        /* \"EnglishAuction.sol\":1607:1616  msg.value */\n      callvalue\n        /* \"EnglishAuction.sol\":1591:1617  Bid(msg.sender, msg.value) */\n      mload(0x40)\n      tag_84\n      swap2\n      swap1\n      tag_47\n      jump\t// in\n    tag_84:\n      mload(0x40)\n      dup1\n      swap2\n      sub\n      swap1\n      log2\n        /* \"EnglishAuction.sol\":1209:1625  function bid() external payable {... */\n      jump\t// out\n        /* \"EnglishAuction.sol\":551:570  bool public started */\n    tag_31:\n      0x04\n      0x00\n      swap1\n      sload\n      swap1\n      0x0100\n      exp\n      swap1\n      div\n      0xff\n      and\n      dup2\n      jump\t// out\n        /* \"EnglishAuction.sol\":1633:1826  function withdraw() external {... */\n    tag_35:\n        /* \"EnglishAuction.sol\":1673:1681  uint bal */\n      0x00\n        /* \"EnglishAuction.sol\":1684:1688  bids */\n      0x06\n        /* \"EnglishAuction.sol\":1684:1700  bids[msg.sender] */\n      0x00\n        /* \"EnglishAuction.sol\":1689:1699  msg.sender */\n      caller\n        /* \"EnglishAuction.sol\":1684:1700  bids[msg.sender] */\n      0xffffffffffffffffffffffffffffffffffffffff\n      and\n      0xffffffffffffffffffffffffffffffffffffffff\n      and\n      dup2\n      mstore\n      0x20\n      add\n      swap1\n      dup2\n      mstore\n      0x20\n      add\n      0x00\n      keccak256\n      sload\n        /* \"EnglishAuction.sol\":1673:1700  uint bal = bids[msg.sender] */\n      swap1\n      pop\n        /* \"EnglishAuction.sol\":1730:1731  0 */\n      0x00\n        /* \"EnglishAuction.sol\":1711:1715  bids */\n      0x06\n        /* \"EnglishAuction.sol\":1711:1727  bids[msg.sender] */\n      0x00\n        /* \"EnglishAuction.sol\":1716:1726  msg.sender */\n      caller\n        /* \"EnglishAuction.sol\":1711:1727  bids[msg.sender] */\n      0xffffffffffffffffffffffffffffffffffffffff\n      and\n      0xffffffffffffffffffffffffffffffffffffffff\n      and\n      dup2\n      mstore\n      0x20\n      add\n      swap1\n      dup2\n      mstore\n      0x20\n      add\n      0x00\n      keccak256\n        /* \"EnglishAuction.sol\":1711:1731  bids[msg.sender] = 0 */\n      dup2\n      swap1\n      sstore\n      pop\n        /* \"EnglishAuction.sol\":1750:1760  msg.sender */\n      caller\n        /* \"EnglishAuction.sol\":1742:1770  payable(msg.sender).transfer */\n      0xffffffffffffffffffffffffffffffffffffffff\n      and\n        /* \"EnglishAuction.sol\":1742:1775  payable(msg.sender).transfer(bal) */\n      0x08fc\n        /* \"EnglishAuction.sol\":1771:1774  bal */\n      dup3\n        /* \"EnglishAuction.sol\":1742:1775  payable(msg.sender).transfer(bal) */\n      swap1\n      dup2\n      iszero\n      mul\n      swap1\n      mload(0x40)\n      0x00\n      mload(0x40)\n      dup1\n      dup4\n      sub\n      dup2\n      dup6\n      dup9\n      dup9\n      call\n      swap4\n      pop\n      pop\n      pop\n      pop\n      iszero\n      dup1\n      iszero\n      tag_87\n      jumpi\n      returndatasize\n      0x00\n      dup1\n      returndatacopy\n      revert(0x00, returndatasize)\n    tag_87:\n      pop\n        /* \"EnglishAuction.sol\":1802:1812  msg.sender */\n      caller\n        /* \"EnglishAuction.sol\":1793:1818  Withdraw(msg.sender, bal) */\n      0xffffffffffffffffffffffffffffffffffffffff\n      and\n      0x884edad9ce6fa2440d8a54cc123490eb96d2768479d49ff9c7366125a9424364\n        /* \"EnglishAuction.sol\":1814:1817  bal */\n      dup3\n        /* \"EnglishAuction.sol\":1793:1818  Withdraw(msg.sender, bal) */\n      mload(0x40)\n      tag_88\n      swap2\n      swap1\n      tag_47\n      jump\t// in\n    tag_88:\n      mload(0x40)\n      dup1\n      swap2\n      sub\n      swap1\n      log2\n        /* \"EnglishAuction.sol\":1662:1826  {... */\n      pop\n        /* \"EnglishAuction.sol\":1633:1826  function withdraw() external {... */\n      jump\t// out\n        /* \"EnglishAuction.sol\":440:458  IERC721 public nft */\n    tag_38:\n      0x00\n      dup1\n      sload\n      swap1\n      0x0100\n      exp\n      swap1\n      div\n      0xffffffffffffffffffffffffffffffffffffffff\n      and\n      dup2\n      jump\t// out\n        /* \"EnglishAuction.sol\":667:703  mapping(address => uint) public bids */\n    tag_45:\n      mstore(0x20, 0x06)\n      dup1\n      0x00\n      mstore\n      keccak256(0x00, 0x40)\n      0x00\n      swap2\n      pop\n      swap1\n      pop\n      sload\n      dup2\n      jump\t// out\n        /* \"EnglishAuction.sol\":527:544  uint public endAt */\n    tag_50:\n      sload(0x03)\n      dup2\n      jump\t// out\n        /* \"EnglishAuction.sol\":603:631  address public highestBidder */\n    tag_54:\n      0x04\n      0x02\n      swap1\n      sload\n      swap1\n      0x0100\n      exp\n      swap1\n      div\n      0xffffffffffffffffffffffffffffffffffffffff\n      and\n      dup2\n      jump\t// out\n        /* \"EnglishAuction.sol\":918:1201  function start() external {... */\n    tag_59:\n        /* \"EnglishAuction.sol\":964:971  started */\n      0x04\n      0x00\n      swap1\n      sload\n      swap1\n      0x0100\n      exp\n      swap1\n      div\n      0xff\n      and\n        /* \"EnglishAuction.sol\":963:971  !started */\n      iszero\n        /* \"EnglishAuction.sol\":955:983  require(!started, \"started\") */\n      tag_90\n      jumpi\n      mload(0x40)\n      0x08c379a000000000000000000000000000000000000000000000000000000000\n      dup2\n      mstore\n      0x04\n      add\n      tag_91\n      swap1\n      tag_92\n      jump\t// in\n    tag_91:\n      mload(0x40)\n      dup1\n      swap2\n      sub\n      swap1\n      revert\n    tag_90:\n        /* \"EnglishAuction.sol\":1016:1022  seller */\n      0x02\n      0x00\n      swap1\n      sload\n      swap1\n      0x0100\n      exp\n      swap1\n      div\n      0xffffffffffffffffffffffffffffffffffffffff\n      and\n        /* \"EnglishAuction.sol\":1002:1022  msg.sender == seller */\n      0xffffffffffffffffffffffffffffffffffffffff\n      and\n        /* \"EnglishAuction.sol\":1002:1012  msg.sender */\n      caller\n        /* \"EnglishAuction.sol\":1002:1022  msg.sender == seller */\n      0xffffffffffffffffffffffffffffffffffffffff\n      and\n      eq\n        /* \"EnglishAuction.sol\":994:1037  require(msg.sender == seller, \"not seller\") */\n      tag_93\n      jumpi\n      mload(0x40)\n      0x08c379a000000000000000000000000000000000000000000000000000000000\n      dup2\n      mstore\n      0x04\n      add\n      tag_94\n      swap1\n      tag_95\n      jump\t// in\n    tag_94:\n      mload(0x40)\n      dup1\n      swap2\n      sub\n      swap1\n      revert\n    tag_93:\n        /* \"EnglishAuction.sol\":1050:1053  nft */\n      0x00\n      dup1\n      sload\n      swap1\n      0x0100\n      exp\n      swap1\n      div\n      0xffffffffffffffffffffffffffffffffffffffff\n      and\n        /* \"EnglishAuction.sol\":1050:1066  nft.transferFrom */\n      0xffffffffffffffffffffffffffffffffffffffff\n      and\n      0x23b872dd\n        /* \"EnglishAuction.sol\":1067:1077  msg.sender */\n      caller\n        /* \"EnglishAuction.sol\":1087:1091  this */\n      address\n        /* \"EnglishAuction.sol\":1094:1099  nftId */\n      sload(0x01)\n        /* \"EnglishAuction.sol\":1050:1100  nft.transferFrom(msg.sender, address(this), nftId) */\n      mload(0x40)\n      dup5\n      0xffffffff\n      and\n      0xe0\n      shl\n      dup2\n      mstore\n      0x04\n      add\n      tag_96\n      swap4\n      swap3\n      swap2\n      swap1\n      tag_97\n      jump\t// in\n    tag_96:\n      0x00\n      mload(0x40)\n      dup1\n      dup4\n      sub\n      dup2\n      0x00\n      dup8\n      dup1\n      extcodesize\n      iszero\n      dup1\n      iszero\n      tag_98\n      jumpi\n      0x00\n      dup1\n      revert\n    tag_98:\n      pop\n      gas\n      call\n      iszero\n      dup1\n      iszero\n      tag_100\n      jumpi\n      returndatasize\n      0x00\n      dup1\n      returndatacopy\n      revert(0x00, returndatasize)\n    tag_100:\n      pop\n      pop\n      pop\n      pop\n        /* \"EnglishAuction.sol\":1121:1125  true */\n      0x01\n        /* \"EnglishAuction.sol\":1111:1118  started */\n      0x04\n      0x00\n        /* \"EnglishAuction.sol\":1111:1125  started = true */\n      0x0100\n      exp\n      dup2\n      sload\n      dup2\n      0xff\n      mul\n      not\n      and\n      swap1\n      dup4\n      iszero\n      iszero\n      mul\n      or\n      swap1\n      sstore\n      pop\n        /* \"EnglishAuction.sol\":1162:1168  7 days */\n      0x093a80\n        /* \"EnglishAuction.sol\":1144:1159  block.timestamp */\n      timestamp\n        /* \"EnglishAuction.sol\":1144:1168  block.timestamp + 7 days */\n      tag_101\n      swap2\n      swap1\n      tag_83\n      jump\t// in\n    tag_101:\n        /* \"EnglishAuction.sol\":1136:1141  endAt */\n      0x03\n        /* \"EnglishAuction.sol\":1136:1168  endAt = block.timestamp + 7 days */\n      dup2\n      swap1\n      sstore\n      pop\n        /* \"EnglishAuction.sol\":1186:1193  Start() */\n      0x1b55ba3aa851a46be3b365aee5b5c140edd620d578922f3e8466d2cbd96f954b\n      mload(0x40)\n      mload(0x40)\n      dup1\n      swap2\n      sub\n      swap1\n      log1\n        /* \"EnglishAuction.sol\":918:1201  function start() external {... */\n      jump\t// out\n        /* \"EnglishAuction.sol\":465:482  uint public nftId */\n    tag_62:\n      sload(0x01)\n      dup2\n      jump\t// out\n        /* \"EnglishAuction.sol\":638:660  uint public highestBid */\n    tag_66:\n      sload(0x05)\n      dup2\n      jump\t// out\n        /* \"EnglishAuction.sol\":1834:2325  function end() external {... */\n    tag_70:\n        /* \"EnglishAuction.sol\":1877:1884  started */\n      0x04\n      0x00\n      swap1\n      sload\n      swap1\n      0x0100\n      exp\n      swap1\n      div\n      0xff\n      and\n        /* \"EnglishAuction.sol\":1869:1900  require(started, \"not started\") */\n      tag_103\n      jumpi\n      mload(0x40)\n      0x08c379a000000000000000000000000000000000000000000000000000000000\n      dup2\n      mstore\n      0x04\n      add\n      tag_104\n      swap1\n      tag_74\n      jump\t// in\n    tag_104:\n      mload(0x40)\n      dup1\n      swap2\n      sub\n      swap1\n      revert\n    tag_103:\n        /* \"EnglishAuction.sol\":1938:1943  endAt */\n      sload(0x03)\n        /* \"EnglishAuction.sol\":1919:1934  block.timestamp */\n      timestamp\n        /* \"EnglishAuction.sol\":1919:1943  block.timestamp >= endAt */\n      lt\n      iszero\n        /* \"EnglishAuction.sol\":1911:1957  require(block.timestamp >= endAt, \"not ended\") */\n      tag_105\n      jumpi\n      mload(0x40)\n      0x08c379a000000000000000000000000000000000000000000000000000000000\n      dup2\n      mstore\n      0x04\n      add\n      tag_106\n      swap1\n      tag_107\n      jump\t// in\n    tag_106:\n      mload(0x40)\n      dup1\n      swap2\n      sub\n      swap1\n      revert\n    tag_105:\n        /* \"EnglishAuction.sol\":1977:1982  ended */\n      0x04\n      0x01\n      swap1\n      sload\n      swap1\n      0x0100\n      exp\n      swap1\n      div\n      0xff\n      and\n        /* \"EnglishAuction.sol\":1976:1982  !ended */\n      iszero\n        /* \"EnglishAuction.sol\":1968:1992  require(!ended, \"ended\") */\n      tag_108\n      jumpi\n      mload(0x40)\n      0x08c379a000000000000000000000000000000000000000000000000000000000\n      dup2\n      mstore\n      0x04\n      add\n      tag_109\n      swap1\n      tag_77\n      jump\t// in\n    tag_109:\n      mload(0x40)\n      dup1\n      swap2\n      sub\n      swap1\n      revert\n    tag_108:\n        /* \"EnglishAuction.sol\":2013:2017  true */\n      0x01\n        /* \"EnglishAuction.sol\":2005:2010  ended */\n      0x04\n      0x01\n        /* \"EnglishAuction.sol\":2005:2017  ended = true */\n      0x0100\n      exp\n      dup2\n      sload\n      dup2\n      0xff\n      mul\n      not\n      and\n      swap1\n      dup4\n      iszero\n      iszero\n      mul\n      or\n      swap1\n      sstore\n      pop\n        /* \"EnglishAuction.sol\":2057:2058  0 */\n      0x00\n        /* \"EnglishAuction.sol\":2032:2059  highestBidder != address(0) */\n      0xffffffffffffffffffffffffffffffffffffffff\n      and\n        /* \"EnglishAuction.sol\":2032:2045  highestBidder */\n      0x04\n      0x02\n      swap1\n      sload\n      swap1\n      0x0100\n      exp\n      swap1\n      div\n      0xffffffffffffffffffffffffffffffffffffffff\n      and\n        /* \"EnglishAuction.sol\":2032:2059  highestBidder != address(0) */\n      0xffffffffffffffffffffffffffffffffffffffff\n      and\n      eq\n        /* \"EnglishAuction.sol\":2028:2270  if (highestBidder != address(0)) {... */\n      tag_110\n      jumpi\n        /* \"EnglishAuction.sol\":2076:2079  nft */\n      0x00\n      dup1\n      sload\n      swap1\n      0x0100\n      exp\n      swap1\n      div\n      0xffffffffffffffffffffffffffffffffffffffff\n      and\n        /* \"EnglishAuction.sol\":2076:2096  nft.safeTransferFrom */\n      0xffffffffffffffffffffffffffffffffffffffff\n      and\n      0x42842e0e\n        /* \"EnglishAuction.sol\":2105:2109  this */\n      address\n        /* \"EnglishAuction.sol\":2112:2125  highestBidder */\n      0x04\n      0x02\n      swap1\n      sload\n      swap1\n      0x0100\n      exp\n      swap1\n      div\n      0xffffffffffffffffffffffffffffffffffffffff\n      and\n        /* \"EnglishAuction.sol\":2127:2132  nftId */\n      sload(0x01)\n        /* \"EnglishAuction.sol\":2076:2133  nft.safeTransferFrom(address(this), highestBidder, nftId) */\n      mload(0x40)\n      dup5\n      0xffffffff\n      and\n      0xe0\n      shl\n      dup2\n      mstore\n      0x04\n      add\n      tag_111\n      swap4\n      swap3\n      swap2\n      swap1\n      tag_97\n      jump\t// in\n    tag_111:\n      0x00\n      mload(0x40)\n      dup1\n      dup4\n      sub\n      dup2\n      0x00\n      dup8\n      dup1\n      extcodesize\n      iszero\n      dup1\n      iszero\n      tag_112\n      jumpi\n      0x00\n      dup1\n      revert\n    tag_112:\n      pop\n      gas\n      call\n      iszero\n      dup1\n      iszero\n      tag_114\n      jumpi\n      returndatasize\n      0x00\n      dup1\n      returndatacopy\n      revert(0x00, returndatasize)\n    tag_114:\n      pop\n      pop\n      pop\n      pop\n        /* \"EnglishAuction.sol\":2148:2154  seller */\n      0x02\n      0x00\n      swap1\n      sload\n      swap1\n      0x0100\n      exp\n      swap1\n      div\n      0xffffffffffffffffffffffffffffffffffffffff\n      and\n        /* \"EnglishAuction.sol\":2148:2163  seller.transfer */\n      0xffffffffffffffffffffffffffffffffffffffff\n      and\n        /* \"EnglishAuction.sol\":2148:2175  seller.transfer(highestBid) */\n      0x08fc\n        /* \"EnglishAuction.sol\":2164:2174  highestBid */\n      sload(0x05)\n        /* \"EnglishAuction.sol\":2148:2175  seller.transfer(highestBid) */\n      swap1\n      dup2\n      iszero\n      mul\n      swap1\n      mload(0x40)\n      0x00\n      mload(0x40)\n      dup1\n      dup4\n      sub\n      dup2\n      dup6\n      dup9\n      dup9\n      call\n      swap4\n      pop\n      pop\n      pop\n      pop\n      iszero\n      dup1\n      iszero\n      tag_116\n      jumpi\n      returndatasize\n      0x00\n      dup1\n      returndatacopy\n      revert(0x00, returndatasize)\n    tag_116:\n      pop\n        /* \"EnglishAuction.sol\":2028:2270  if (highestBidder != address(0)) {... */\n      jump(tag_117)\n    tag_110:\n        /* \"EnglishAuction.sol\":2208:2211  nft */\n      0x00\n      dup1\n      sload\n      swap1\n      0x0100\n      exp\n      swap1\n      div\n      0xffffffffffffffffffffffffffffffffffffffff\n      and\n        /* \"EnglishAuction.sol\":2208:2228  nft.safeTransferFrom */\n      0xffffffffffffffffffffffffffffffffffffffff\n      and\n      0x42842e0e\n        /* \"EnglishAuction.sol\":2237:2241  this */\n      address\n        /* \"EnglishAuction.sol\":2244:2250  seller */\n      0x02\n      0x00\n      swap1\n      sload\n      swap1\n      0x0100\n      exp\n      swap1\n      div\n      0xffffffffffffffffffffffffffffffffffffffff\n      and\n        /* \"EnglishAuction.sol\":2252:2257  nftId */\n      sload(0x01)\n        /* \"EnglishAuction.sol\":2208:2258  nft.safeTransferFrom(address(this), seller, nftId) */\n      mload(0x40)\n      dup5\n      0xffffffff\n      and\n      0xe0\n      shl\n      dup2\n      mstore\n      0x04\n      add\n      tag_118\n      swap4\n      swap3\n      swap2\n      swap1\n      tag_119\n      jump\t// in\n    tag_118:\n      0x00\n      mload(0x40)\n      dup1\n      dup4\n      sub\n      dup2\n      0x00\n      dup8\n      dup1\n      extcodesize\n      iszero\n      dup1\n      iszero\n      tag_120\n      jumpi\n      0x00\n      dup1\n      revert\n    tag_120:\n      pop\n      gas\n      call\n      iszero\n      dup1\n      iszero\n      tag_122\n      jumpi\n      returndatasize\n      0x00\n      dup1\n      returndatacopy\n      revert(0x00, returndatasize)\n    tag_122:\n      pop\n      pop\n      pop\n      pop\n        /* \"EnglishAuction.sol\":2028:2270  if (highestBidder != address(0)) {... */\n    tag_117:\n        /* \"EnglishAuction.sol\":2287:2317  End(highestBidder, highestBid) */\n      0x7d7570b046e5ead3a4f3fbc9fa2445113625a1e79823776146316bafed6b8cc5\n        /* \"EnglishAuction.sol\":2291:2304  highestBidder */\n      0x04\n      0x02\n      swap1\n      sload\n      swap1\n      0x0100\n      exp\n      swap1\n      div\n      0xffffffffffffffffffffffffffffffffffffffff\n      and\n        /* \"EnglishAuction.sol\":2306:2316  highestBid */\n      sload(0x05)\n        /* \"EnglishAuction.sol\":2287:2317  End(highestBidder, highestBid) */\n      mload(0x40)\n      tag_123\n      swap3\n      swap2\n      swap1\n      tag_124\n      jump\t// in\n    tag_123:\n      mload(0x40)\n      dup1\n      swap2\n      sub\n      swap1\n      log1\n        /* \"EnglishAuction.sol\":1834:2325  function end() external {... */\n      jump\t// out\n        /* \"#utility.yul\":7:133   */\n    tag_125:\n        /* \"#utility.yul\":44:51   */\n      0x00\n        /* \"#utility.yul\":84:126   */\n      0xffffffffffffffffffffffffffffffffffffffff\n        /* \"#utility.yul\":77:82   */\n      dup3\n        /* \"#utility.yul\":73:127   */\n      and\n        /* \"#utility.yul\":62:127   */\n      swap1\n      pop\n        /* \"#utility.yul\":7:133   */\n      swap2\n      swap1\n      pop\n      jump\t// out\n        /* \"#utility.yul\":139:243   */\n    tag_126:\n        /* \"#utility.yul\":184:191   */\n      0x00\n        /* \"#utility.yul\":213:237   */\n      tag_163\n        /* \"#utility.yul\":231:236   */\n      dup3\n        /* \"#utility.yul\":213:237   */\n      tag_125\n      jump\t// in\n    tag_163:\n        /* \"#utility.yul\":202:237   */\n      swap1\n      pop\n        /* \"#utility.yul\":139:243   */\n      swap2\n      swap1\n      pop\n      jump\t// out\n        /* \"#utility.yul\":249:391   */\n    tag_127:\n        /* \"#utility.yul\":352:384   */\n      tag_165\n        /* \"#utility.yul\":378:383   */\n      dup2\n        /* \"#utility.yul\":352:384   */\n      tag_126\n      jump\t// in\n    tag_165:\n        /* \"#utility.yul\":347:350   */\n      dup3\n        /* \"#utility.yul\":340:385   */\n      mstore\n        /* \"#utility.yul\":249:391   */\n      pop\n      pop\n      jump\t// out\n        /* \"#utility.yul\":397:651   */\n    tag_21:\n        /* \"#utility.yul\":506:510   */\n      0x00\n        /* \"#utility.yul\":544:546   */\n      0x20\n        /* \"#utility.yul\":533:542   */\n      dup3\n        /* \"#utility.yul\":529:547   */\n      add\n        /* \"#utility.yul\":521:547   */\n      swap1\n      pop\n        /* \"#utility.yul\":557:644   */\n      tag_167\n        /* \"#utility.yul\":641:642   */\n      0x00\n        /* \"#utility.yul\":630:639   */\n      dup4\n        /* \"#utility.yul\":626:643   */\n      add\n        /* \"#utility.yul\":617:623   */\n      dup5\n        /* \"#utility.yul\":557:644   */\n      tag_127\n      jump\t// in\n    tag_167:\n        /* \"#utility.yul\":397:651   */\n      swap3\n      swap2\n      pop\n      pop\n      jump\t// out\n        /* \"#utility.yul\":657:747   */\n    tag_128:\n        /* \"#utility.yul\":691:698   */\n      0x00\n        /* \"#utility.yul\":734:739   */\n      dup2\n        /* \"#utility.yul\":727:740   */\n      iszero\n        /* \"#utility.yul\":720:741   */\n      iszero\n        /* \"#utility.yul\":709:741   */\n      swap1\n      pop\n        /* \"#utility.yul\":657:747   */\n      swap2\n      swap1\n      pop\n      jump\t// out\n        /* \"#utility.yul\":753:862   */\n    tag_129:\n        /* \"#utility.yul\":834:855   */\n      tag_170\n        /* \"#utility.yul\":849:854   */\n      dup2\n        /* \"#utility.yul\":834:855   */\n      tag_128\n      jump\t// in\n    tag_170:\n        /* \"#utility.yul\":829:832   */\n      dup3\n        /* \"#utility.yul\":822:856   */\n      mstore\n        /* \"#utility.yul\":753:862   */\n      pop\n      pop\n      jump\t// out\n        /* \"#utility.yul\":868:1078   */\n    tag_26:\n        /* \"#utility.yul\":955:959   */\n      0x00\n        /* \"#utility.yul\":993:995   */\n      0x20\n        /* \"#utility.yul\":982:991   */\n      dup3\n        /* \"#utility.yul\":978:996   */\n      add\n        /* \"#utility.yul\":970:996   */\n      swap1\n      pop\n        /* \"#utility.yul\":1006:1071   */\n      tag_172\n        /* \"#utility.yul\":1068:1069   */\n      0x00\n        /* \"#utility.yul\":1057:1066   */\n      dup4\n        /* \"#utility.yul\":1053:1070   */\n      add\n        /* \"#utility.yul\":1044:1050   */\n      dup5\n        /* \"#utility.yul\":1006:1071   */\n      tag_129\n      jump\t// in\n    tag_172:\n        /* \"#utility.yul\":868:1078   */\n      swap3\n      swap2\n      pop\n      pop\n      jump\t// out\n        /* \"#utility.yul\":1084:1144   */\n    tag_130:\n        /* \"#utility.yul\":1112:1115   */\n      0x00\n        /* \"#utility.yul\":1133:1138   */\n      dup2\n        /* \"#utility.yul\":1126:1138   */\n      swap1\n      pop\n        /* \"#utility.yul\":1084:1144   */\n      swap2\n      swap1\n      pop\n      jump\t// out\n        /* \"#utility.yul\":1150:1292   */\n    tag_131:\n        /* \"#utility.yul\":1200:1209   */\n      0x00\n        /* \"#utility.yul\":1233:1286   */\n      tag_175\n        /* \"#utility.yul\":1251:1285   */\n      tag_176\n        /* \"#utility.yul\":1260:1284   */\n      tag_177\n        /* \"#utility.yul\":1278:1283   */\n      dup5\n        /* \"#utility.yul\":1260:1284   */\n      tag_125\n      jump\t// in\n    tag_177:\n        /* \"#utility.yul\":1251:1285   */\n      tag_130\n      jump\t// in\n    tag_176:\n        /* \"#utility.yul\":1233:1286   */\n      tag_125\n      jump\t// in\n    tag_175:\n        /* \"#utility.yul\":1220:1286   */\n      swap1\n      pop\n        /* \"#utility.yul\":1150:1292   */\n      swap2\n      swap1\n      pop\n      jump\t// out\n        /* \"#utility.yul\":1298:1424   */\n    tag_132:\n        /* \"#utility.yul\":1348:1357   */\n      0x00\n        /* \"#utility.yul\":1381:1418   */\n      tag_179\n        /* \"#utility.yul\":1412:1417   */\n      dup3\n        /* \"#utility.yul\":1381:1418   */\n      tag_131\n      jump\t// in\n    tag_179:\n        /* \"#utility.yul\":1368:1418   */\n      swap1\n      pop\n        /* \"#utility.yul\":1298:1424   */\n      swap2\n      swap1\n      pop\n      jump\t// out\n        /* \"#utility.yul\":1430:1570   */\n    tag_133:\n        /* \"#utility.yul\":1494:1503   */\n      0x00\n        /* \"#utility.yul\":1527:1564   */\n      tag_181\n        /* \"#utility.yul\":1558:1563   */\n      dup3\n        /* \"#utility.yul\":1527:1564   */\n      tag_132\n      jump\t// in\n    tag_181:\n        /* \"#utility.yul\":1514:1564   */\n      swap1\n      pop\n        /* \"#utility.yul\":1430:1570   */\n      swap2\n      swap1\n      pop\n      jump\t// out\n        /* \"#utility.yul\":1576:1735   */\n    tag_134:\n        /* \"#utility.yul\":1677:1728   */\n      tag_183\n        /* \"#utility.yul\":1722:1727   */\n      dup2\n        /* \"#utility.yul\":1677:1728   */\n      tag_133\n      jump\t// in\n    tag_183:\n        /* \"#utility.yul\":1672:1675   */\n      dup3\n        /* \"#utility.yul\":1665:1729   */\n      mstore\n        /* \"#utility.yul\":1576:1735   */\n      pop\n      pop\n      jump\t// out\n        /* \"#utility.yul\":1741:1991   */\n    tag_40:\n        /* \"#utility.yul\":1848:1852   */\n      0x00\n        /* \"#utility.yul\":1886:1888   */\n      0x20\n        /* \"#utility.yul\":1875:1884   */\n      dup3\n        /* \"#utility.yul\":1871:1889   */\n      add\n        /* \"#utility.yul\":1863:1889   */\n      swap1\n      pop\n        /* \"#utility.yul\":1899:1984   */\n      tag_185\n        /* \"#utility.yul\":1981:1982   */\n      0x00\n        /* \"#utility.yul\":1970:1979   */\n      dup4\n        /* \"#utility.yul\":1966:1983   */\n      add\n        /* \"#utility.yul\":1957:1963   */\n      dup5\n        /* \"#utility.yul\":1899:1984   */\n      tag_134\n      jump\t// in\n    tag_185:\n        /* \"#utility.yul\":1741:1991   */\n      swap3\n      swap2\n      pop\n      pop\n      jump\t// out\n        /* \"#utility.yul\":2078:2195   */\n    tag_136:\n        /* \"#utility.yul\":2187:2188   */\n      0x00\n        /* \"#utility.yul\":2184:2185   */\n      dup1\n        /* \"#utility.yul\":2177:2189   */\n      revert\n        /* \"#utility.yul\":2324:2420   */\n    tag_138:\n        /* \"#utility.yul\":2361:2368   */\n      0x00\n        /* \"#utility.yul\":2390:2414   */\n      tag_190\n        /* \"#utility.yul\":2408:2413   */\n      dup3\n        /* \"#utility.yul\":2390:2414   */\n      tag_125\n      jump\t// in\n    tag_190:\n        /* \"#utility.yul\":2379:2414   */\n      swap1\n      pop\n        /* \"#utility.yul\":2324:2420   */\n      swap2\n      swap1\n      pop\n      jump\t// out\n        /* \"#utility.yul\":2426:2548   */\n    tag_139:\n        /* \"#utility.yul\":2499:2523   */\n      tag_192\n        /* \"#utility.yul\":2517:2522   */\n      dup2\n        /* \"#utility.yul\":2499:2523   */\n      tag_138\n      jump\t// in\n    tag_192:\n        /* \"#utility.yul\":2492:2497   */\n      dup2\n        /* \"#utility.yul\":2489:2524   */\n      eq\n        /* \"#utility.yul\":2479:2542   */\n      tag_193\n      jumpi\n        /* \"#utility.yul\":2538:2539   */\n      0x00\n        /* \"#utility.yul\":2535:2536   */\n      dup1\n        /* \"#utility.yul\":2528:2540   */\n      revert\n        /* \"#utility.yul\":2479:2542   */\n    tag_193:\n        /* \"#utility.yul\":2426:2548   */\n      pop\n      jump\t// out\n        /* \"#utility.yul\":2554:2693   */\n    tag_140:\n        /* \"#utility.yul\":2600:2605   */\n      0x00\n        /* \"#utility.yul\":2638:2644   */\n      dup2\n        /* \"#utility.yul\":2625:2645   */\n      calldataload\n        /* \"#utility.yul\":2616:2645   */\n      swap1\n      pop\n        /* \"#utility.yul\":2654:2687   */\n      tag_195\n        /* \"#utility.yul\":2681:2686   */\n      dup2\n        /* \"#utility.yul\":2654:2687   */\n      tag_139\n      jump\t// in\n    tag_195:\n        /* \"#utility.yul\":2554:2693   */\n      swap3\n      swap2\n      pop\n      pop\n      jump\t// out\n        /* \"#utility.yul\":2699:3028   */\n    tag_44:\n        /* \"#utility.yul\":2758:2764   */\n      0x00\n        /* \"#utility.yul\":2807:2809   */\n      0x20\n        /* \"#utility.yul\":2795:2804   */\n      dup3\n        /* \"#utility.yul\":2786:2793   */\n      dup5\n        /* \"#utility.yul\":2782:2805   */\n      sub\n        /* \"#utility.yul\":2778:2810   */\n      slt\n        /* \"#utility.yul\":2775:2894   */\n      iszero\n      tag_197\n      jumpi\n        /* \"#utility.yul\":2813:2892   */\n      tag_198\n      tag_136\n      jump\t// in\n    tag_198:\n        /* \"#utility.yul\":2775:2894   */\n    tag_197:\n        /* \"#utility.yul\":2933:2934   */\n      0x00\n        /* \"#utility.yul\":2958:3011   */\n      tag_199\n        /* \"#utility.yul\":3003:3010   */\n      dup5\n        /* \"#utility.yul\":2994:3000   */\n      dup3\n        /* \"#utility.yul\":2983:2992   */\n      dup6\n        /* \"#utility.yul\":2979:3001   */\n      add\n        /* \"#utility.yul\":2958:3011   */\n      tag_140\n      jump\t// in\n    tag_199:\n        /* \"#utility.yul\":2948:3011   */\n      swap2\n      pop\n        /* \"#utility.yul\":2904:3021   */\n      pop\n        /* \"#utility.yul\":2699:3028   */\n      swap3\n      swap2\n      pop\n      pop\n      jump\t// out\n        /* \"#utility.yul\":3034:3111   */\n    tag_141:\n        /* \"#utility.yul\":3071:3078   */\n      0x00\n        /* \"#utility.yul\":3100:3105   */\n      dup2\n        /* \"#utility.yul\":3089:3105   */\n      swap1\n      pop\n        /* \"#utility.yul\":3034:3111   */\n      swap2\n      swap1\n      pop\n      jump\t// out\n        /* \"#utility.yul\":3117:3235   */\n    tag_142:\n        /* \"#utility.yul\":3204:3228   */\n      tag_202\n        /* \"#utility.yul\":3222:3227   */\n      dup2\n        /* \"#utility.yul\":3204:3228   */\n      tag_141\n      jump\t// in\n    tag_202:\n        /* \"#utility.yul\":3199:3202   */\n      dup3\n        /* \"#utility.yul\":3192:3229   */\n      mstore\n        /* \"#utility.yul\":3117:3235   */\n      pop\n      pop\n      jump\t// out\n        /* \"#utility.yul\":3241:3463   */\n    tag_47:\n        /* \"#utility.yul\":3334:3338   */\n      0x00\n        /* \"#utility.yul\":3372:3374   */\n      0x20\n        /* \"#utility.yul\":3361:3370   */\n      dup3\n        /* \"#utility.yul\":3357:3375   */\n      add\n        /* \"#utility.yul\":3349:3375   */\n      swap1\n      pop\n        /* \"#utility.yul\":3385:3456   */\n      tag_204\n        /* \"#utility.yul\":3453:3454   */\n      0x00\n        /* \"#utility.yul\":3442:3451   */\n      dup4\n        /* \"#utility.yul\":3438:3455   */\n      add\n        /* \"#utility.yul\":3429:3435   */\n      dup5\n        /* \"#utility.yul\":3385:3456   */\n      tag_142\n      jump\t// in\n    tag_204:\n        /* \"#utility.yul\":3241:3463   */\n      swap3\n      swap2\n      pop\n      pop\n      jump\t// out\n        /* \"#utility.yul\":3469:3587   */\n    tag_143:\n        /* \"#utility.yul\":3556:3580   */\n      tag_206\n        /* \"#utility.yul\":3574:3579   */\n      dup2\n        /* \"#utility.yul\":3556:3580   */\n      tag_138\n      jump\t// in\n    tag_206:\n        /* \"#utility.yul\":3551:3554   */\n      dup3\n        /* \"#utility.yul\":3544:3581   */\n      mstore\n        /* \"#utility.yul\":3469:3587   */\n      pop\n      pop\n      jump\t// out\n        /* \"#utility.yul\":3593:3815   */\n    tag_56:\n        /* \"#utility.yul\":3686:3690   */\n      0x00\n        /* \"#utility.yul\":3724:3726   */\n      0x20\n        /* \"#utility.yul\":3713:3722   */\n      dup3\n        /* \"#utility.yul\":3709:3727   */\n      add\n        /* \"#utility.yul\":3701:3727   */\n      swap1\n      pop\n        /* \"#utility.yul\":3737:3808   */\n      tag_208\n        /* \"#utility.yul\":3805:3806   */\n      0x00\n        /* \"#utility.yul\":3794:3803   */\n      dup4\n        /* \"#utility.yul\":3790:3807   */\n      add\n        /* \"#utility.yul\":3781:3787   */\n      dup5\n        /* \"#utility.yul\":3737:3808   */\n      tag_143\n      jump\t// in\n    tag_208:\n        /* \"#utility.yul\":3593:3815   */\n      swap3\n      swap2\n      pop\n      pop\n      jump\t// out\n        /* \"#utility.yul\":3821:3990   */\n    tag_144:\n        /* \"#utility.yul\":3905:3916   */\n      0x00\n        /* \"#utility.yul\":3939:3945   */\n      dup3\n        /* \"#utility.yul\":3934:3937   */\n      dup3\n        /* \"#utility.yul\":3927:3946   */\n      mstore\n        /* \"#utility.yul\":3979:3983   */\n      0x20\n        /* \"#utility.yul\":3974:3977   */\n      dup3\n        /* \"#utility.yul\":3970:3984   */\n      add\n        /* \"#utility.yul\":3955:3984   */\n      swap1\n      pop\n        /* \"#utility.yul\":3821:3990   */\n      swap3\n      swap2\n      pop\n      pop\n      jump\t// out\n        /* \"#utility.yul\":3996:4157   */\n    tag_145:\n        /* \"#utility.yul\":4136:4149   */\n      0x6e6f742073746172746564000000000000000000000000000000000000000000\n        /* \"#utility.yul\":4132:4133   */\n      0x00\n        /* \"#utility.yul\":4124:4130   */\n      dup3\n        /* \"#utility.yul\":4120:4134   */\n      add\n        /* \"#utility.yul\":4113:4150   */\n      mstore\n        /* \"#utility.yul\":3996:4157   */\n      pop\n      jump\t// out\n        /* \"#utility.yul\":4163:4529   */\n    tag_146:\n        /* \"#utility.yul\":4305:4308   */\n      0x00\n        /* \"#utility.yul\":4326:4393   */\n      tag_212\n        /* \"#utility.yul\":4390:4392   */\n      0x0b\n        /* \"#utility.yul\":4385:4388   */\n      dup4\n        /* \"#utility.yul\":4326:4393   */\n      tag_144\n      jump\t// in\n    tag_212:\n        /* \"#utility.yul\":4319:4393   */\n      swap2\n      pop\n        /* \"#utility.yul\":4402:4495   */\n      tag_213\n        /* \"#utility.yul\":4491:4494   */\n      dup3\n        /* \"#utility.yul\":4402:4495   */\n      tag_145\n      jump\t// in\n    tag_213:\n        /* \"#utility.yul\":4520:4522   */\n      0x20\n        /* \"#utility.yul\":4515:4518   */\n      dup3\n        /* \"#utility.yul\":4511:4523   */\n      add\n        /* \"#utility.yul\":4504:4523   */\n      swap1\n      pop\n        /* \"#utility.yul\":4163:4529   */\n      swap2\n      swap1\n      pop\n      jump\t// out\n        /* \"#utility.yul\":4535:4954   */\n    tag_74:\n        /* \"#utility.yul\":4701:4705   */\n      0x00\n        /* \"#utility.yul\":4739:4741   */\n      0x20\n        /* \"#utility.yul\":4728:4737   */\n      dup3\n        /* \"#utility.yul\":4724:4742   */\n      add\n        /* \"#utility.yul\":4716:4742   */\n      swap1\n      pop\n        /* \"#utility.yul\":4788:4797   */\n      dup2\n        /* \"#utility.yul\":4782:4786   */\n      dup2\n        /* \"#utility.yul\":4778:4798   */\n      sub\n        /* \"#utility.yul\":4774:4775   */\n      0x00\n        /* \"#utility.yul\":4763:4772   */\n      dup4\n        /* \"#utility.yul\":4759:4776   */\n      add\n        /* \"#utility.yul\":4752:4799   */\n      mstore\n        /* \"#utility.yul\":4816:4947   */\n      tag_215\n        /* \"#utility.yul\":4942:4946   */\n      dup2\n        /* \"#utility.yul\":4816:4947   */\n      tag_146\n      jump\t// in\n    tag_215:\n        /* \"#utility.yul\":4808:4947   */\n      swap1\n      pop\n        /* \"#utility.yul\":4535:4954   */\n      swap2\n      swap1\n      pop\n      jump\t// out\n        /* \"#utility.yul\":4960:5115   */\n    tag_147:\n        /* \"#utility.yul\":5100:5107   */\n      0x656e646564000000000000000000000000000000000000000000000000000000\n        /* \"#utility.yul\":5096:5097   */\n      0x00\n        /* \"#utility.yul\":5088:5094   */\n      dup3\n        /* \"#utility.yul\":5084:5098   */\n      add\n        /* \"#utility.yul\":5077:5108   */\n      mstore\n        /* \"#utility.yul\":4960:5115   */\n      pop\n      jump\t// out\n        /* \"#utility.yul\":5121:5486   */\n    tag_148:\n        /* \"#utility.yul\":5263:5266   */\n      0x00\n        /* \"#utility.yul\":5284:5350   */\n      tag_218\n        /* \"#utility.yul\":5348:5349   */\n      0x05\n        /* \"#utility.yul\":5343:5346   */\n      dup4\n        /* \"#utility.yul\":5284:5350   */\n      tag_144\n      jump\t// in\n    tag_218:\n        /* \"#utility.yul\":5277:5350   */\n      swap2\n      pop\n        /* \"#utility.yul\":5359:5452   */\n      tag_219\n        /* \"#utility.yul\":5448:5451   */\n      dup3\n        /* \"#utility.yul\":5359:5452   */\n      tag_147\n      jump\t// in\n    tag_219:\n        /* \"#utility.yul\":5477:5479   */\n      0x20\n        /* \"#utility.yul\":5472:5475   */\n      dup3\n        /* \"#utility.yul\":5468:5480   */\n      add\n        /* \"#utility.yul\":5461:5480   */\n      swap1\n      pop\n        /* \"#utility.yul\":5121:5486   */\n      swap2\n      swap1\n      pop\n      jump\t// out\n        /* \"#utility.yul\":5492:5911   */\n    tag_77:\n        /* \"#utility.yul\":5658:5662   */\n      0x00\n        /* \"#utility.yul\":5696:5698   */\n      0x20\n        /* \"#utility.yul\":5685:5694   */\n      dup3\n        /* \"#utility.yul\":5681:5699   */\n      add\n        /* \"#utility.yul\":5673:5699   */\n      swap1\n      pop\n        /* \"#utility.yul\":5745:5754   */\n      dup2\n        /* \"#utility.yul\":5739:5743   */\n      dup2\n        /* \"#utility.yul\":5735:5755   */\n      sub\n        /* \"#utility.yul\":5731:5732   */\n      0x00\n        /* \"#utility.yul\":5720:5729   */\n      dup4\n        /* \"#utility.yul\":5716:5733   */\n      add\n        /* \"#utility.yul\":5709:5756   */\n      mstore\n        /* \"#utility.yul\":5773:5904   */\n      tag_221\n        /* \"#utility.yul\":5899:5903   */\n      dup2\n        /* \"#utility.yul\":5773:5904   */\n      tag_148\n      jump\t// in\n    tag_221:\n        /* \"#utility.yul\":5765:5904   */\n      swap1\n      pop\n        /* \"#utility.yul\":5492:5911   */\n      swap2\n      swap1\n      pop\n      jump\t// out\n        /* \"#utility.yul\":5917:6082   */\n    tag_149:\n        /* \"#utility.yul\":6057:6074   */\n      0x76616c7565203c20686967686573740000000000000000000000000000000000\n        /* \"#utility.yul\":6053:6054   */\n      0x00\n        /* \"#utility.yul\":6045:6051   */\n      dup3\n        /* \"#utility.yul\":6041:6055   */\n      add\n        /* \"#utility.yul\":6034:6075   */\n      mstore\n        /* \"#utility.yul\":5917:6082   */\n      pop\n      jump\t// out\n        /* \"#utility.yul\":6088:6454   */\n    tag_150:\n        /* \"#utility.yul\":6230:6233   */\n      0x00\n        /* \"#utility.yul\":6251:6318   */\n      tag_224\n        /* \"#utility.yul\":6315:6317   */\n      0x0f\n        /* \"#utility.yul\":6310:6313   */\n      dup4\n        /* \"#utility.yul\":6251:6318   */\n      tag_144\n      jump\t// in\n    tag_224:\n        /* \"#utility.yul\":6244:6318   */\n      swap2\n      pop\n        /* \"#utility.yul\":6327:6420   */\n      tag_225\n        /* \"#utility.yul\":6416:6419   */\n      dup3\n        /* \"#utility.yul\":6327:6420   */\n      tag_149\n      jump\t// in\n    tag_225:\n        /* \"#utility.yul\":6445:6447   */\n      0x20\n        /* \"#utility.yul\":6440:6443   */\n      dup3\n        /* \"#utility.yul\":6436:6448   */\n      add\n        /* \"#utility.yul\":6429:6448   */\n      swap1\n      pop\n        /* \"#utility.yul\":6088:6454   */\n      swap2\n      swap1\n      pop\n      jump\t// out\n        /* \"#utility.yul\":6460:6879   */\n    tag_80:\n        /* \"#utility.yul\":6626:6630   */\n      0x00\n        /* \"#utility.yul\":6664:6666   */\n      0x20\n        /* \"#utility.yul\":6653:6662   */\n      dup3\n        /* \"#utility.yul\":6649:6667   */\n      add\n        /* \"#utility.yul\":6641:6667   */\n      swap1\n      pop\n        /* \"#utility.yul\":6713:6722   */\n      dup2\n        /* \"#utility.yul\":6707:6711   */\n      dup2\n        /* \"#utility.yul\":6703:6723   */\n      sub\n        /* \"#utility.yul\":6699:6700   */\n      0x00\n        /* \"#utility.yul\":6688:6697   */\n      dup4\n        /* \"#utility.yul\":6684:6701   */\n      add\n        /* \"#utility.yul\":6677:6724   */\n      mstore\n        /* \"#utility.yul\":6741:6872   */\n      tag_227\n        /* \"#utility.yul\":6867:6871   */\n      dup2\n        /* \"#utility.yul\":6741:6872   */\n      tag_150\n      jump\t// in\n    tag_227:\n        /* \"#utility.yul\":6733:6872   */\n      swap1\n      pop\n        /* \"#utility.yul\":6460:6879   */\n      swap2\n      swap1\n      pop\n      jump\t// out\n        /* \"#utility.yul\":6885:7065   */\n    tag_151:\n        /* \"#utility.yul\":6933:7010   */\n      0x4e487b7100000000000000000000000000000000000000000000000000000000\n        /* \"#utility.yul\":6930:6931   */\n      0x00\n        /* \"#utility.yul\":6923:7011   */\n      mstore\n        /* \"#utility.yul\":7030:7034   */\n      0x11\n        /* \"#utility.yul\":7027:7028   */\n      0x04\n        /* \"#utility.yul\":7020:7035   */\n      mstore\n        /* \"#utility.yul\":7054:7058   */\n      0x24\n        /* \"#utility.yul\":7051:7052   */\n      0x00\n        /* \"#utility.yul\":7044:7059   */\n      revert\n        /* \"#utility.yul\":7071:7262   */\n    tag_83:\n        /* \"#utility.yul\":7111:7114   */\n      0x00\n        /* \"#utility.yul\":7130:7150   */\n      tag_230\n        /* \"#utility.yul\":7148:7149   */\n      dup3\n        /* \"#utility.yul\":7130:7150   */\n      tag_141\n      jump\t// in\n    tag_230:\n        /* \"#utility.yul\":7125:7150   */\n      swap2\n      pop\n        /* \"#utility.yul\":7164:7184   */\n      tag_231\n        /* \"#utility.yul\":7182:7183   */\n      dup4\n        /* \"#utility.yul\":7164:7184   */\n      tag_141\n      jump\t// in\n    tag_231:\n        /* \"#utility.yul\":7159:7184   */\n      swap3\n      pop\n        /* \"#utility.yul\":7207:7208   */\n      dup3\n        /* \"#utility.yul\":7204:7205   */\n      dup3\n        /* \"#utility.yul\":7200:7209   */\n      add\n        /* \"#utility.yul\":7193:7209   */\n      swap1\n      pop\n        /* \"#utility.yul\":7228:7231   */\n      dup1\n        /* \"#utility.yul\":7225:7226   */\n      dup3\n        /* \"#utility.yul\":7222:7232   */\n      gt\n        /* \"#utility.yul\":7219:7255   */\n      iszero\n      tag_232\n      jumpi\n        /* \"#utility.yul\":7235:7253   */\n      tag_233\n      tag_151\n      jump\t// in\n    tag_233:\n        /* \"#utility.yul\":7219:7255   */\n    tag_232:\n        /* \"#utility.yul\":7071:7262   */\n      swap3\n      swap2\n      pop\n      pop\n      jump\t// out\n        /* \"#utility.yul\":7268:7425   */\n    tag_152:\n        /* \"#utility.yul\":7408:7417   */\n      0x7374617274656400000000000000000000000000000000000000000000000000\n        /* \"#utility.yul\":7404:7405   */\n      0x00\n        /* \"#utility.yul\":7396:7402   */\n      dup3\n        /* \"#utility.yul\":7392:7406   */\n      add\n        /* \"#utility.yul\":7385:7418   */\n      mstore\n        /* \"#utility.yul\":7268:7425   */\n      pop\n      jump\t// out\n        /* \"#utility.yul\":7431:7796   */\n    tag_153:\n        /* \"#utility.yul\":7573:7576   */\n      0x00\n        /* \"#utility.yul\":7594:7660   */\n      tag_236\n        /* \"#utility.yul\":7658:7659   */\n      0x07\n        /* \"#utility.yul\":7653:7656   */\n      dup4\n        /* \"#utility.yul\":7594:7660   */\n      tag_144\n      jump\t// in\n    tag_236:\n        /* \"#utility.yul\":7587:7660   */\n      swap2\n      pop\n        /* \"#utility.yul\":7669:7762   */\n      tag_237\n        /* \"#utility.yul\":7758:7761   */\n      dup3\n        /* \"#utility.yul\":7669:7762   */\n      tag_152\n      jump\t// in\n    tag_237:\n        /* \"#utility.yul\":7787:7789   */\n      0x20\n        /* \"#utility.yul\":7782:7785   */\n      dup3\n        /* \"#utility.yul\":7778:7790   */\n      add\n        /* \"#utility.yul\":7771:7790   */\n      swap1\n      pop\n        /* \"#utility.yul\":7431:7796   */\n      swap2\n      swap1\n      pop\n      jump\t// out\n        /* \"#utility.yul\":7802:8221   */\n    tag_92:\n        /* \"#utility.yul\":7968:7972   */\n      0x00\n        /* \"#utility.yul\":8006:8008   */\n      0x20\n        /* \"#utility.yul\":7995:8004   */\n      dup3\n        /* \"#utility.yul\":7991:8009   */\n      add\n        /* \"#utility.yul\":7983:8009   */\n      swap1\n      pop\n        /* \"#utility.yul\":8055:8064   */\n      dup2\n        /* \"#utility.yul\":8049:8053   */\n      dup2\n        /* \"#utility.yul\":8045:8065   */\n      sub\n        /* \"#utility.yul\":8041:8042   */\n      0x00\n        /* \"#utility.yul\":8030:8039   */\n      dup4\n        /* \"#utility.yul\":8026:8043   */\n      add\n        /* \"#utility.yul\":8019:8066   */\n      mstore\n        /* \"#utility.yul\":8083:8214   */\n      tag_239\n        /* \"#utility.yul\":8209:8213   */\n      dup2\n        /* \"#utility.yul\":8083:8214   */\n      tag_153\n      jump\t// in\n    tag_239:\n        /* \"#utility.yul\":8075:8214   */\n      swap1\n      pop\n        /* \"#utility.yul\":7802:8221   */\n      swap2\n      swap1\n      pop\n      jump\t// out\n        /* \"#utility.yul\":8227:8387   */\n    tag_154:\n        /* \"#utility.yul\":8367:8379   */\n      0x6e6f742073656c6c657200000000000000000000000000000000000000000000\n        /* \"#utility.yul\":8363:8364   */\n      0x00\n        /* \"#utility.yul\":8355:8361   */\n      dup3\n        /* \"#utility.yul\":8351:8365   */\n      add\n        /* \"#utility.yul\":8344:8380   */\n      mstore\n        /* \"#utility.yul\":8227:8387   */\n      pop\n      jump\t// out\n        /* \"#utility.yul\":8393:8759   */\n    tag_155:\n        /* \"#utility.yul\":8535:8538   */\n      0x00\n        /* \"#utility.yul\":8556:8623   */\n      tag_242\n        /* \"#utility.yul\":8620:8622   */\n      0x0a\n        /* \"#utility.yul\":8615:8618   */\n      dup4\n        /* \"#utility.yul\":8556:8623   */\n      tag_144\n      jump\t// in\n    tag_242:\n        /* \"#utility.yul\":8549:8623   */\n      swap2\n      pop\n        /* \"#utility.yul\":8632:8725   */\n      tag_243\n        /* \"#utility.yul\":8721:8724   */\n      dup3\n        /* \"#utility.yul\":8632:8725   */\n      tag_154\n      jump\t// in\n    tag_243:\n        /* \"#utility.yul\":8750:8752   */\n      0x20\n        /* \"#utility.yul\":8745:8748   */\n      dup3\n        /* \"#utility.yul\":8741:8753   */\n      add\n        /* \"#utility.yul\":8734:8753   */\n      swap1\n      pop\n        /* \"#utility.yul\":8393:8759   */\n      swap2\n      swap1\n      pop\n      jump\t// out\n        /* \"#utility.yul\":8765:9184   */\n    tag_95:\n        /* \"#utility.yul\":8931:8935   */\n      0x00\n        /* \"#utility.yul\":8969:8971   */\n      0x20\n        /* \"#utility.yul\":8958:8967   */\n      dup3\n        /* \"#utility.yul\":8954:8972   */\n      add\n        /* \"#utility.yul\":8946:8972   */\n      swap1\n      pop\n        /* \"#utility.yul\":9018:9027   */\n      dup2\n        /* \"#utility.yul\":9012:9016   */\n      dup2\n        /* \"#utility.yul\":9008:9028   */\n      sub\n        /* \"#utility.yul\":9004:9005   */\n      0x00\n        /* \"#utility.yul\":8993:9002   */\n      dup4\n        /* \"#utility.yul\":8989:9006   */\n      add\n        /* \"#utility.yul\":8982:9029   */\n      mstore\n        /* \"#utility.yul\":9046:9177   */\n      tag_245\n        /* \"#utility.yul\":9172:9176   */\n      dup2\n        /* \"#utility.yul\":9046:9177   */\n      tag_155\n      jump\t// in\n    tag_245:\n        /* \"#utility.yul\":9038:9177   */\n      swap1\n      pop\n        /* \"#utility.yul\":8765:9184   */\n      swap2\n      swap1\n      pop\n      jump\t// out\n        /* \"#utility.yul\":9190:9632   */\n    tag_97:\n        /* \"#utility.yul\":9339:9343   */\n      0x00\n        /* \"#utility.yul\":9377:9379   */\n      0x60\n        /* \"#utility.yul\":9366:9375   */\n      dup3\n        /* \"#utility.yul\":9362:9380   */\n      add\n        /* \"#utility.yul\":9354:9380   */\n      swap1\n      pop\n        /* \"#utility.yul\":9390:9461   */\n      tag_247\n        /* \"#utility.yul\":9458:9459   */\n      0x00\n        /* \"#utility.yul\":9447:9456   */\n      dup4\n        /* \"#utility.yul\":9443:9460   */\n      add\n        /* \"#utility.yul\":9434:9440   */\n      dup7\n        /* \"#utility.yul\":9390:9461   */\n      tag_143\n      jump\t// in\n    tag_247:\n        /* \"#utility.yul\":9471:9543   */\n      tag_248\n        /* \"#utility.yul\":9539:9541   */\n      0x20\n        /* \"#utility.yul\":9528:9537   */\n      dup4\n        /* \"#utility.yul\":9524:9542   */\n      add\n        /* \"#utility.yul\":9515:9521   */\n      dup6\n        /* \"#utility.yul\":9471:9543   */\n      tag_143\n      jump\t// in\n    tag_248:\n        /* \"#utility.yul\":9553:9625   */\n      tag_249\n        /* \"#utility.yul\":9621:9623   */\n      0x40\n        /* \"#utility.yul\":9610:9619   */\n      dup4\n        /* \"#utility.yul\":9606:9624   */\n      add\n        /* \"#utility.yul\":9597:9603   */\n      dup5\n        /* \"#utility.yul\":9553:9625   */\n      tag_142\n      jump\t// in\n    tag_249:\n        /* \"#utility.yul\":9190:9632   */\n      swap5\n      swap4\n      pop\n      pop\n      pop\n      pop\n      jump\t// out\n        /* \"#utility.yul\":9638:9797   */\n    tag_156:\n        /* \"#utility.yul\":9778:9789   */\n      0x6e6f7420656e6465640000000000000000000000000000000000000000000000\n        /* \"#utility.yul\":9774:9775   */\n      0x00\n        /* \"#utility.yul\":9766:9772   */\n      dup3\n        /* \"#utility.yul\":9762:9776   */\n      add\n        /* \"#utility.yul\":9755:9790   */\n      mstore\n        /* \"#utility.yul\":9638:9797   */\n      pop\n      jump\t// out\n        /* \"#utility.yul\":9803:10168   */\n    tag_157:\n        /* \"#utility.yul\":9945:9948   */\n      0x00\n        /* \"#utility.yul\":9966:10032   */\n      tag_252\n        /* \"#utility.yul\":10030:10031   */\n      0x09\n        /* \"#utility.yul\":10025:10028   */\n      dup4\n        /* \"#utility.yul\":9966:10032   */\n      tag_144\n      jump\t// in\n    tag_252:\n        /* \"#utility.yul\":9959:10032   */\n      swap2\n      pop\n        /* \"#utility.yul\":10041:10134   */\n      tag_253\n        /* \"#utility.yul\":10130:10133   */\n      dup3\n        /* \"#utility.yul\":10041:10134   */\n      tag_156\n      jump\t// in\n    tag_253:\n        /* \"#utility.yul\":10159:10161   */\n      0x20\n        /* \"#utility.yul\":10154:10157   */\n      dup3\n        /* \"#utility.yul\":10150:10162   */\n      add\n        /* \"#utility.yul\":10143:10162   */\n      swap1\n      pop\n        /* \"#utility.yul\":9803:10168   */\n      swap2\n      swap1\n      pop\n      jump\t// out\n        /* \"#utility.yul\":10174:10593   */\n    tag_107:\n        /* \"#utility.yul\":10340:10344   */\n      0x00\n        /* \"#utility.yul\":10378:10380   */\n      0x20\n        /* \"#utility.yul\":10367:10376   */\n      dup3\n        /* \"#utility.yul\":10363:10381   */\n      add\n        /* \"#utility.yul\":10355:10381   */\n      swap1\n      pop\n        /* \"#utility.yul\":10427:10436   */\n      dup2\n        /* \"#utility.yul\":10421:10425   */\n      dup2\n        /* \"#utility.yul\":10417:10437   */\n      sub\n        /* \"#utility.yul\":10413:10414   */\n      0x00\n        /* \"#utility.yul\":10402:10411   */\n      dup4\n        /* \"#utility.yul\":10398:10415   */\n      add\n        /* \"#utility.yul\":10391:10438   */\n      mstore\n        /* \"#utility.yul\":10455:10586   */\n      tag_255\n        /* \"#utility.yul\":10581:10585   */\n      dup2\n        /* \"#utility.yul\":10455:10586   */\n      tag_157\n      jump\t// in\n    tag_255:\n        /* \"#utility.yul\":10447:10586   */\n      swap1\n      pop\n        /* \"#utility.yul\":10174:10593   */\n      swap2\n      swap1\n      pop\n      jump\t// out\n        /* \"#utility.yul\":10599:10733   */\n    tag_158:\n        /* \"#utility.yul\":10657:10666   */\n      0x00\n        /* \"#utility.yul\":10690:10727   */\n      tag_257\n        /* \"#utility.yul\":10721:10726   */\n      dup3\n        /* \"#utility.yul\":10690:10727   */\n      tag_132\n      jump\t// in\n    tag_257:\n        /* \"#utility.yul\":10677:10727   */\n      swap1\n      pop\n        /* \"#utility.yul\":10599:10733   */\n      swap2\n      swap1\n      pop\n      jump\t// out\n        /* \"#utility.yul\":10739:10886   */\n    tag_159:\n        /* \"#utility.yul\":10834:10879   */\n      tag_259\n        /* \"#utility.yul\":10873:10878   */\n      dup2\n        /* \"#utility.yul\":10834:10879   */\n      tag_158\n      jump\t// in\n    tag_259:\n        /* \"#utility.yul\":10829:10832   */\n      dup3\n        /* \"#utility.yul\":10822:10880   */\n      mstore\n        /* \"#utility.yul\":10739:10886   */\n      pop\n      pop\n      jump\t// out\n        /* \"#utility.yul\":10892:11350   */\n    tag_119:\n        /* \"#utility.yul\":11049:11053   */\n      0x00\n        /* \"#utility.yul\":11087:11089   */\n      0x60\n        /* \"#utility.yul\":11076:11085   */\n      dup3\n        /* \"#utility.yul\":11072:11090   */\n      add\n        /* \"#utility.yul\":11064:11090   */\n      swap1\n      pop\n        /* \"#utility.yul\":11100:11171   */\n      tag_261\n        /* \"#utility.yul\":11168:11169   */\n      0x00\n        /* \"#utility.yul\":11157:11166   */\n      dup4\n        /* \"#utility.yul\":11153:11170   */\n      add\n        /* \"#utility.yul\":11144:11150   */\n      dup7\n        /* \"#utility.yul\":11100:11171   */\n      tag_143\n      jump\t// in\n    tag_261:\n        /* \"#utility.yul\":11181:11261   */\n      tag_262\n        /* \"#utility.yul\":11257:11259   */\n      0x20\n        /* \"#utility.yul\":11246:11255   */\n      dup4\n        /* \"#utility.yul\":11242:11260   */\n      add\n        /* \"#utility.yul\":11233:11239   */\n      dup6\n        /* \"#utility.yul\":11181:11261   */\n      tag_159\n      jump\t// in\n    tag_262:\n        /* \"#utility.yul\":11271:11343   */\n      tag_263\n        /* \"#utility.yul\":11339:11341   */\n      0x40\n        /* \"#utility.yul\":11328:11337   */\n      dup4\n        /* \"#utility.yul\":11324:11342   */\n      add\n        /* \"#utility.yul\":11315:11321   */\n      dup5\n        /* \"#utility.yul\":11271:11343   */\n      tag_142\n      jump\t// in\n    tag_263:\n        /* \"#utility.yul\":10892:11350   */\n      swap5\n      swap4\n      pop\n      pop\n      pop\n      pop\n      jump\t// out\n        /* \"#utility.yul\":11356:11688   */\n    tag_124:\n        /* \"#utility.yul\":11477:11481   */\n      0x00\n        /* \"#utility.yul\":11515:11517   */\n      0x40\n        /* \"#utility.yul\":11504:11513   */\n      dup3\n        /* \"#utility.yul\":11500:11518   */\n      add\n        /* \"#utility.yul\":11492:11518   */\n      swap1\n      pop\n        /* \"#utility.yul\":11528:11599   */\n      tag_265\n        /* \"#utility.yul\":11596:11597   */\n      0x00\n        /* \"#utility.yul\":11585:11594   */\n      dup4\n        /* \"#utility.yul\":11581:11598   */\n      add\n        /* \"#utility.yul\":11572:11578   */\n      dup6\n        /* \"#utility.yul\":11528:11599   */\n      tag_143\n      jump\t// in\n    tag_265:\n        /* \"#utility.yul\":11609:11681   */\n      tag_266\n        /* \"#utility.yul\":11677:11679   */\n      0x20\n        /* \"#utility.yul\":11666:11675   */\n      dup4\n        /* \"#utility.yul\":11662:11680   */\n      add\n        /* \"#utility.yul\":11653:11659   */\n      dup5\n        /* \"#utility.yul\":11609:11681   */\n      tag_142\n      jump\t// in\n    tag_266:\n        /* \"#utility.yul\":11356:11688   */\n      swap4\n      swap3\n      pop\n      pop\n      pop\n      jump\t// out\n\n    auxdata: 0xa26469706673582212201618cf35d0f12d8ddc65d594d16974b8e5b13cd3c058c92db0442c622899b29e64736f6c63430008120033\n}\n",
				"bytecode": {
					"linkReferences": {},
					"object": "60806040523480156200001157600080fd5b50604051620013ca380380620013ca833981810160405281019062000037919062000174565b826000806101000a81548173ffffffffffffffffffffffffffffffffffffffff021916908373ffffffffffffffffffffffffffffffffffffffff1602179055508160018190555033600260006101000a81548173ffffffffffffffffffffffffffffffffffffffff021916908373ffffffffffffffffffffffffffffffffffffffff16021790555080600581905550505050620001d0565b600080fd5b600073ffffffffffffffffffffffffffffffffffffffff82169050919050565b60006200010182620000d4565b9050919050565b6200011381620000f4565b81146200011f57600080fd5b50565b600081519050620001338162000108565b92915050565b6000819050919050565b6200014e8162000139565b81146200015a57600080fd5b50565b6000815190506200016e8162000143565b92915050565b60008060006060848603121562000190576200018f620000cf565b5b6000620001a08682870162000122565b9350506020620001b3868287016200015d565b9250506040620001c6868287016200015d565b9150509250925092565b6111ea80620001e06000396000f3fe6080604052600436106100c25760003560e01c806362ea82db1161007f578063be9a655511610059578063be9a655514610227578063c6bc51821461023e578063d57bde7914610269578063efbe1c1c14610294576100c2565b806362ea82db146101945780637cc3ae8c146101d157806391f90157146101fc576100c2565b806308551a53146100c757806312fa6feb146100f25780631998aeef1461011d5780631f2698ab146101275780633ccfd60b1461015257806347ccca0214610169575b600080fd5b3480156100d357600080fd5b506100dc6102ab565b6040516100e99190610c67565b60405180910390f35b3480156100fe57600080fd5b506101076102d1565b6040516101149190610c9d565b60405180910390f35b6101256102e4565b005b34801561013357600080fd5b5061013c610524565b6040516101499190610c9d565b60405180910390f35b34801561015e57600080fd5b50610167610537565b005b34801561017557600080fd5b5061017e610658565b60405161018b9190610d17565b60405180910390f35b3480156101a057600080fd5b506101bb60048036038101906101b69190610d75565b61067c565b6040516101c89190610dbb565b60405180910390f35b3480156101dd57600080fd5b506101e6610694565b6040516101f39190610dbb565b60405180910390f35b34801561020857600080fd5b5061021161069a565b60405161021e9190610de5565b60405180910390f35b34801561023357600080fd5b5061023c6106c0565b005b34801561024a57600080fd5b5061025361088f565b6040516102609190610dbb565b60405180910390f35b34801561027557600080fd5b5061027e610895565b60405161028b9190610dbb565b60405180910390f35b3480156102a057600080fd5b506102a961089b565b005b600260009054906101000a900473ffffffffffffffffffffffffffffffffffffffff1681565b600460019054906101000a900460ff1681565b600460009054906101000a900460ff16610333576040517f08c379a000000000000000000000000000000000000000000000000000000000815260040161032a90610e5d565b60405180910390fd5b6003544210610377576040517f08c379a000000000000000000000000000000000000000000000000000000000815260040161036e90610ec9565b60405180910390fd5b60055434116103bb576040517f08c379a00000000000000000000000000000000000000000000000000000000081526004016103b290610f35565b60405180910390fd5b600073ffffffffffffffffffffffffffffffffffffffff16600460029054906101000a900473ffffffffffffffffffffffffffffffffffffffff1673ffffffffffffffffffffffffffffffffffffffff161461048c5760055460066000600460029054906101000a900473ffffffffffffffffffffffffffffffffffffffff1673ffffffffffffffffffffffffffffffffffffffff1673ffffffffffffffffffffffffffffffffffffffff16815260200190815260200160002060008282546104849190610f84565b925050819055505b33600460026101000a81548173ffffffffffffffffffffffffffffffffffffffff021916908373ffffffffffffffffffffffffffffffffffffffff160217905550346005819055503373ffffffffffffffffffffffffffffffffffffffff167fe684a55f31b79eca403df938249029212a5925ec6be8012e099b45bc1019e5d23460405161051a9190610dbb565b60405180910390a2565b600460009054906101000a900460ff1681565b6000600660003373ffffffffffffffffffffffffffffffffffffffff1673ffffffffffffffffffffffffffffffffffffffff1681526020019081526020016000205490506000600660003373ffffffffffffffffffffffffffffffffffffffff1673ffffffffffffffffffffffffffffffffffffffff168152602001908152602001600020819055503373ffffffffffffffffffffffffffffffffffffffff166108fc829081150290604051600060405180830381858888f19350505050158015610606573d6000803e3d6000fd5b503373ffffffffffffffffffffffffffffffffffffffff167f884edad9ce6fa2440d8a54cc123490eb96d2768479d49ff9c7366125a94243648260405161064d9190610dbb565b60405180910390a250565b60008054906101000a900473ffffffffffffffffffffffffffffffffffffffff1681565b60066020528060005260406000206000915090505481565b60035481565b600460029054906101000a900473ffffffffffffffffffffffffffffffffffffffff1681565b600460009054906101000a900460ff1615610710576040517f08c379a000000000000000000000000000000000000000000000000000000000815260040161070790611004565b60405180910390fd5b600260009054906101000a900473ffffffffffffffffffffffffffffffffffffffff1673ffffffffffffffffffffffffffffffffffffffff163373ffffffffffffffffffffffffffffffffffffffff16146107a0576040517f08c379a000000000000000000000000000000000000000000000000000000000815260040161079790611070565b60405180910390fd5b60008054906101000a900473ffffffffffffffffffffffffffffffffffffffff1673ffffffffffffffffffffffffffffffffffffffff166323b872dd33306001546040518463ffffffff1660e01b81526004016107ff93929190611090565b600060405180830381600087803b15801561081957600080fd5b505af115801561082d573d6000803e3d6000fd5b505050506001600460006101000a81548160ff02191690831515021790555062093a804261085b9190610f84565b6003819055507f1b55ba3aa851a46be3b365aee5b5c140edd620d578922f3e8466d2cbd96f954b60405160405180910390a1565b60015481565b60055481565b600460009054906101000a900460ff166108ea576040517f08c379a00000000000000000000000000000000000000000000000000000000081526004016108e190610e5d565b60405180910390fd5b60035442101561092f576040517f08c379a000000000000000000000000000000000000000000000000000000000815260040161092690611113565b60405180910390fd5b600460019054906101000a900460ff161561097f576040517f08c379a000000000000000000000000000000000000000000000000000000000815260040161097690610ec9565b60405180910390fd5b6001600460016101000a81548160ff021916908315150217905550600073ffffffffffffffffffffffffffffffffffffffff16600460029054906101000a900473ffffffffffffffffffffffffffffffffffffffff1673ffffffffffffffffffffffffffffffffffffffff1614610b135760008054906101000a900473ffffffffffffffffffffffffffffffffffffffff1673ffffffffffffffffffffffffffffffffffffffff166342842e0e30600460029054906101000a900473ffffffffffffffffffffffffffffffffffffffff166001546040518463ffffffff1660e01b8152600401610a7193929190611090565b600060405180830381600087803b158015610a8b57600080fd5b505af1158015610a9f573d6000803e3d6000fd5b50505050600260009054906101000a900473ffffffffffffffffffffffffffffffffffffffff1673ffffffffffffffffffffffffffffffffffffffff166108fc6005549081150290604051600060405180830381858888f19350505050158015610b0d573d6000803e3d6000fd5b50610bc7565b60008054906101000a900473ffffffffffffffffffffffffffffffffffffffff1673ffffffffffffffffffffffffffffffffffffffff166342842e0e30600260009054906101000a900473ffffffffffffffffffffffffffffffffffffffff166001546040518463ffffffff1660e01b8152600401610b9493929190611154565b600060405180830381600087803b158015610bae57600080fd5b505af1158015610bc2573d6000803e3d6000fd5b505050505b7f7d7570b046e5ead3a4f3fbc9fa2445113625a1e79823776146316bafed6b8cc5600460029054906101000a900473ffffffffffffffffffffffffffffffffffffffff16600554604051610c1c92919061118b565b60405180910390a1565b600073ffffffffffffffffffffffffffffffffffffffff82169050919050565b6000610c5182610c26565b9050919050565b610c6181610c46565b82525050565b6000602082019050610c7c6000830184610c58565b92915050565b60008115159050919050565b610c9781610c82565b82525050565b6000602082019050610cb26000830184610c8e565b92915050565b6000819050919050565b6000610cdd610cd8610cd384610c26565b610cb8565b610c26565b9050919050565b6000610cef82610cc2565b9050919050565b6000610d0182610ce4565b9050919050565b610d1181610cf6565b82525050565b6000602082019050610d2c6000830184610d08565b92915050565b600080fd5b6000610d4282610c26565b9050919050565b610d5281610d37565b8114610d5d57600080fd5b50565b600081359050610d6f81610d49565b92915050565b600060208284031215610d8b57610d8a610d32565b5b6000610d9984828501610d60565b91505092915050565b6000819050919050565b610db581610da2565b82525050565b6000602082019050610dd06000830184610dac565b92915050565b610ddf81610d37565b82525050565b6000602082019050610dfa6000830184610dd6565b92915050565b600082825260208201905092915050565b7f6e6f742073746172746564000000000000000000000000000000000000000000600082015250565b6000610e47600b83610e00565b9150610e5282610e11565b602082019050919050565b60006020820190508181036000830152610e7681610e3a565b9050919050565b7f656e646564000000000000000000000000000000000000000000000000000000600082015250565b6000610eb3600583610e00565b9150610ebe82610e7d565b602082019050919050565b60006020820190508181036000830152610ee281610ea6565b9050919050565b7f76616c7565203c20686967686573740000000000000000000000000000000000600082015250565b6000610f1f600f83610e00565b9150610f2a82610ee9565b602082019050919050565b60006020820190508181036000830152610f4e81610f12565b9050919050565b7f4e487b7100000000000000000000000000000000000000000000000000000000600052601160045260246000fd5b6000610f8f82610da2565b9150610f9a83610da2565b9250828201905080821115610fb257610fb1610f55565b5b92915050565b7f7374617274656400000000000000000000000000000000000000000000000000600082015250565b6000610fee600783610e00565b9150610ff982610fb8565b602082019050919050565b6000602082019050818103600083015261101d81610fe1565b9050919050565b7f6e6f742073656c6c657200000000000000000000000000000000000000000000600082015250565b600061105a600a83610e00565b915061106582611024565b602082019050919050565b600060208201905081810360008301526110898161104d565b9050919050565b60006060820190506110a56000830186610dd6565b6110b26020830185610dd6565b6110bf6040830184610dac565b949350505050565b7f6e6f7420656e6465640000000000000000000000000000000000000000000000600082015250565b60006110fd600983610e00565b9150611108826110c7565b602082019050919050565b6000602082019050818103600083015261112c816110f0565b9050919050565b600061113e82610ce4565b9050919050565b61114e81611133565b82525050565b60006060820190506111696000830186610dd6565b6111766020830185611145565b6111836040830184610dac565b949350505050565b60006040820190506111a06000830185610dd6565b6111ad6020830184610dac565b939250505056fea26469706673582212201618cf35d0f12d8ddc65d594d16974b8e5b13cd3c058c92db0442c622899b29e64736f6c63430008120033",
					"opcodes": "PUSH1 0x80 PUSH1 0x40 MSTORE CALLVALUE DUP1 ISZERO PUSH3 0x11 JUMPI PUSH1 0x0 DUP1 REVERT JUMPDEST POP PUSH1 0x40 MLOAD PUSH3 0x13CA CODESIZE SUB DUP1 PUSH3 0x13CA DUP4 CODECOPY DUP2 DUP2 ADD PUSH1 0x40 MSTORE DUP2 ADD SWAP1 PUSH3 0x37 SWAP2 SWAP1 PUSH3 0x174 JUMP JUMPDEST DUP3 PUSH1 0x0 DUP1 PUSH2 0x100 EXP DUP2 SLOAD DUP2 PUSH20 0xFFFFFFFFFFFFFFFFFFFFFFFFFFFFFFFFFFFFFFFF MUL NOT AND SWAP1 DUP4 PUSH20 0xFFFFFFFFFFFFFFFFFFFFFFFFFFFFFFFFFFFFFFFF AND MUL OR SWAP1 SSTORE POP DUP2 PUSH1 0x1 DUP2 SWAP1 SSTORE POP CALLER PUSH1 0x2 PUSH1 0x0 PUSH2 0x100 EXP DUP2 SLOAD DUP2 PUSH20 0xFFFFFFFFFFFFFFFFFFFFFFFFFFFFFFFFFFFFFFFF MUL NOT AND SWAP1 DUP4 PUSH20 0xFFFFFFFFFFFFFFFFFFFFFFFFFFFFFFFFFFFFFFFF AND MUL OR SWAP1 SSTORE POP DUP1 PUSH1 0x5 DUP2 SWAP1 SSTORE POP POP POP POP PUSH3 0x1D0 JUMP JUMPDEST PUSH1 0x0 DUP1 REVERT JUMPDEST PUSH1 0x0 PUSH20 0xFFFFFFFFFFFFFFFFFFFFFFFFFFFFFFFFFFFFFFFF DUP3 AND SWAP1 POP SWAP2 SWAP1 POP JUMP JUMPDEST PUSH1 0x0 PUSH3 0x101 DUP3 PUSH3 0xD4 JUMP JUMPDEST SWAP1 POP SWAP2 SWAP1 POP JUMP JUMPDEST PUSH3 0x113 DUP2 PUSH3 0xF4 JUMP JUMPDEST DUP2 EQ PUSH3 0x11F JUMPI PUSH1 0x0 DUP1 REVERT JUMPDEST POP JUMP JUMPDEST PUSH1 0x0 DUP2 MLOAD SWAP1 POP PUSH3 0x133 DUP2 PUSH3 0x108 JUMP JUMPDEST SWAP3 SWAP2 POP POP JUMP JUMPDEST PUSH1 0x0 DUP2 SWAP1 POP SWAP2 SWAP1 POP JUMP JUMPDEST PUSH3 0x14E DUP2 PUSH3 0x139 JUMP JUMPDEST DUP2 EQ PUSH3 0x15A JUMPI PUSH1 0x0 DUP1 REVERT JUMPDEST POP JUMP JUMPDEST PUSH1 0x0 DUP2 MLOAD SWAP1 POP PUSH3 0x16E DUP2 PUSH3 0x143 JUMP JUMPDEST SWAP3 SWAP2 POP POP JUMP JUMPDEST PUSH1 0x0 DUP1 PUSH1 0x0 PUSH1 0x60 DUP5 DUP7 SUB SLT ISZERO PUSH3 0x190 JUMPI PUSH3 0x18F PUSH3 0xCF JUMP JUMPDEST JUMPDEST PUSH1 0x0 PUSH3 0x1A0 DUP7 DUP3 DUP8 ADD PUSH3 0x122 JUMP JUMPDEST SWAP4 POP POP PUSH1 0x20 PUSH3 0x1B3 DUP7 DUP3 DUP8 ADD PUSH3 0x15D JUMP JUMPDEST SWAP3 POP POP PUSH1 0x40 PUSH3 0x1C6 DUP7 DUP3 DUP8 ADD PUSH3 0x15D JUMP JUMPDEST SWAP2 POP POP SWAP3 POP SWAP3 POP SWAP3 JUMP JUMPDEST PUSH2 0x11EA DUP1 PUSH3 0x1E0 PUSH1 0x0 CODECOPY PUSH1 0x0 RETURN INVALID PUSH1 0x80 PUSH1 0x40 MSTORE PUSH1 0x4 CALLDATASIZE LT PUSH2 0xC2 JUMPI PUSH1 0x0 CALLDATALOAD PUSH1 0xE0 SHR DUP1 PUSH4 0x62EA82DB GT PUSH2 0x7F JUMPI DUP1 PUSH4 0xBE9A6555 GT PUSH2 0x59 JUMPI DUP1 PUSH4 0xBE9A6555 EQ PUSH2 0x227 JUMPI DUP1 PUSH4 0xC6BC5182 EQ PUSH2 0x23E JUMPI DUP1 PUSH4 0xD57BDE79 EQ PUSH2 0x269 JUMPI DUP1 PUSH4 0xEFBE1C1C EQ PUSH2 0x294 JUMPI PUSH2 0xC2 JUMP JUMPDEST DUP1 PUSH4 0x62EA82DB EQ PUSH2 0x194 JUMPI DUP1 PUSH4 0x7CC3AE8C EQ PUSH2 0x1D1 JUMPI DUP1 PUSH4 0x91F90157 EQ PUSH2 0x1FC JUMPI PUSH2 0xC2 JUMP JUMPDEST DUP1 PUSH4 0x8551A53 EQ PUSH2 0xC7 JUMPI DUP1 PUSH4 0x12FA6FEB EQ PUSH2 0xF2 JUMPI DUP1 PUSH4 0x1998AEEF EQ PUSH2 0x11D JUMPI DUP1 PUSH4 0x1F2698AB EQ PUSH2 0x127 JUMPI DUP1 PUSH4 0x3CCFD60B EQ PUSH2 0x152 JUMPI DUP1 PUSH4 0x47CCCA02 EQ PUSH2 0x169 JUMPI JUMPDEST PUSH1 0x0 DUP1 REVERT JUMPDEST CALLVALUE DUP1 ISZERO PUSH2 0xD3 JUMPI PUSH1 0x0 DUP1 REVERT JUMPDEST POP PUSH2 0xDC PUSH2 0x2AB JUMP JUMPDEST PUSH1 0x40 MLOAD PUSH2 0xE9 SWAP2 SWAP1 PUSH2 0xC67 JUMP JUMPDEST PUSH1 0x40 MLOAD DUP1 SWAP2 SUB SWAP1 RETURN JUMPDEST CALLVALUE DUP1 ISZERO PUSH2 0xFE JUMPI PUSH1 0x0 DUP1 REVERT JUMPDEST POP PUSH2 0x107 PUSH2 0x2D1 JUMP JUMPDEST PUSH1 0x40 MLOAD PUSH2 0x114 SWAP2 SWAP1 PUSH2 0xC9D JUMP JUMPDEST PUSH1 0x40 MLOAD DUP1 SWAP2 SUB SWAP1 RETURN JUMPDEST PUSH2 0x125 PUSH2 0x2E4 JUMP JUMPDEST STOP JUMPDEST CALLVALUE DUP1 ISZERO PUSH2 0x133 JUMPI PUSH1 0x0 DUP1 REVERT JUMPDEST POP PUSH2 0x13C PUSH2 0x524 JUMP JUMPDEST PUSH1 0x40 MLOAD PUSH2 0x149 SWAP2 SWAP1 PUSH2 0xC9D JUMP JUMPDEST PUSH1 0x40 MLOAD DUP1 SWAP2 SUB SWAP1 RETURN JUMPDEST CALLVALUE DUP1 ISZERO PUSH2 0x15E JUMPI PUSH1 0x0 DUP1 REVERT JUMPDEST POP PUSH2 0x167 PUSH2 0x537 JUMP JUMPDEST STOP JUMPDEST CALLVALUE DUP1 ISZERO PUSH2 0x175 JUMPI PUSH1 0x0 DUP1 REVERT JUMPDEST POP PUSH2 0x17E PUSH2 0x658 JUMP JUMPDEST PUSH1 0x40 MLOAD PUSH2 0x18B SWAP2 SWAP1 PUSH2 0xD17 JUMP JUMPDEST PUSH1 0x40 MLOAD DUP1 SWAP2 SUB SWAP1 RETURN JUMPDEST CALLVALUE DUP1 ISZERO PUSH2 0x1A0 JUMPI PUSH1 0x0 DUP1 REVERT JUMPDEST POP PUSH2 0x1BB PUSH1 0x4 DUP1 CALLDATASIZE SUB DUP2 ADD SWAP1 PUSH2 0x1B6 SWAP2 SWAP1 PUSH2 0xD75 JUMP JUMPDEST PUSH2 0x67C JUMP JUMPDEST PUSH1 0x40 MLOAD PUSH2 0x1C8 SWAP2 SWAP1 PUSH2 0xDBB JUMP JUMPDEST PUSH1 0x40 MLOAD DUP1 SWAP2 SUB SWAP1 RETURN JUMPDEST CALLVALUE DUP1 ISZERO PUSH2 0x1DD JUMPI PUSH1 0x0 DUP1 REVERT JUMPDEST POP PUSH2 0x1E6 PUSH2 0x694 JUMP JUMPDEST PUSH1 0x40 MLOAD PUSH2 0x1F3 SWAP2 SWAP1 PUSH2 0xDBB JUMP JUMPDEST PUSH1 0x40 MLOAD DUP1 SWAP2 SUB SWAP1 RETURN JUMPDEST CALLVALUE DUP1 ISZERO PUSH2 0x208 JUMPI PUSH1 0x0 DUP1 REVERT JUMPDEST POP PUSH2 0x211 PUSH2 0x69A JUMP JUMPDEST PUSH1 0x40 MLOAD PUSH2 0x21E SWAP2 SWAP1 PUSH2 0xDE5 JUMP JUMPDEST PUSH1 0x40 MLOAD DUP1 SWAP2 SUB SWAP1 RETURN JUMPDEST CALLVALUE DUP1 ISZERO PUSH2 0x233 JUMPI PUSH1 0x0 DUP1 REVERT JUMPDEST POP PUSH2 0x23C PUSH2 0x6C0 JUMP JUMPDEST STOP JUMPDEST CALLVALUE DUP1 ISZERO PUSH2 0x24A JUMPI PUSH1 0x0 DUP1 REVERT JUMPDEST POP PUSH2 0x253 PUSH2 0x88F JUMP JUMPDEST PUSH1 0x40 MLOAD PUSH2 0x260 SWAP2 SWAP1 PUSH2 0xDBB JUMP JUMPDEST PUSH1 0x40 MLOAD DUP1 SWAP2 SUB SWAP1 RETURN JUMPDEST CALLVALUE DUP1 ISZERO PUSH2 0x275 JUMPI PUSH1 0x0 DUP1 REVERT JUMPDEST POP PUSH2 0x27E PUSH2 0x895 JUMP JUMPDEST PUSH1 0x40 MLOAD PUSH2 0x28B SWAP2 SWAP1 PUSH2 0xDBB JUMP JUMPDEST PUSH1 0x40 MLOAD DUP1 SWAP2 SUB SWAP1 RETURN JUMPDEST CALLVALUE DUP1 ISZERO PUSH2 0x2A0 JUMPI PUSH1 0x0 DUP1 REVERT JUMPDEST POP PUSH2 0x2A9 PUSH2 0x89B JUMP JUMPDEST STOP JUMPDEST PUSH1 0x2 PUSH1 0x0 SWAP1 SLOAD SWAP1 PUSH2 0x100 EXP SWAP1 DIV PUSH20 0xFFFFFFFFFFFFFFFFFFFFFFFFFFFFFFFFFFFFFFFF AND DUP2 JUMP JUMPDEST PUSH1 0x4 PUSH1 0x1 SWAP1 SLOAD SWAP1 PUSH2 0x100 EXP SWAP1 DIV PUSH1 0xFF AND DUP2 JUMP JUMPDEST PUSH1 0x4 PUSH1 0x0 SWAP1 SLOAD SWAP1 PUSH2 0x100 EXP SWAP1 DIV PUSH1 0xFF AND PUSH2 0x333 JUMPI PUSH1 0x40 MLOAD PUSH32 0x8C379A000000000000000000000000000000000000000000000000000000000 DUP2 MSTORE PUSH1 0x4 ADD PUSH2 0x32A SWAP1 PUSH2 0xE5D JUMP JUMPDEST PUSH1 0x40 MLOAD DUP1 SWAP2 SUB SWAP1 REVERT JUMPDEST PUSH1 0x3 SLOAD TIMESTAMP LT PUSH2 0x377 JUMPI PUSH1 0x40 MLOAD PUSH32 0x8C379A000000000000000000000000000000000000000000000000000000000 DUP2 MSTORE PUSH1 0x4 ADD PUSH2 0x36E SWAP1 PUSH2 0xEC9 JUMP JUMPDEST PUSH1 0x40 MLOAD DUP1 SWAP2 SUB SWAP1 REVERT JUMPDEST PUSH1 0x5 SLOAD CALLVALUE GT PUSH2 0x3BB JUMPI PUSH1 0x40 MLOAD PUSH32 0x8C379A000000000000000000000000000000000000000000000000000000000 DUP2 MSTORE PUSH1 0x4 ADD PUSH2 0x3B2 SWAP1 PUSH2 0xF35 JUMP JUMPDEST PUSH1 0x40 MLOAD DUP1 SWAP2 SUB SWAP1 REVERT JUMPDEST PUSH1 0x0 PUSH20 0xFFFFFFFFFFFFFFFFFFFFFFFFFFFFFFFFFFFFFFFF AND PUSH1 0x4 PUSH1 0x2 SWAP1 SLOAD SWAP1 PUSH2 0x100 EXP SWAP1 DIV PUSH20 0xFFFFFFFFFFFFFFFFFFFFFFFFFFFFFFFFFFFFFFFF AND PUSH20 0xFFFFFFFFFFFFFFFFFFFFFFFFFFFFFFFFFFFFFFFF AND EQ PUSH2 0x48C JUMPI PUSH1 0x5 SLOAD PUSH1 0x6 PUSH1 0x0 PUSH1 0x4 PUSH1 0x2 SWAP1 SLOAD SWAP1 PUSH2 0x100 EXP SWAP1 DIV PUSH20 0xFFFFFFFFFFFFFFFFFFFFFFFFFFFFFFFFFFFFFFFF AND PUSH20 0xFFFFFFFFFFFFFFFFFFFFFFFFFFFFFFFFFFFFFFFF AND PUSH20 0xFFFFFFFFFFFFFFFFFFFFFFFFFFFFFFFFFFFFFFFF AND DUP2 MSTORE PUSH1 0x20 ADD SWAP1 DUP2 MSTORE PUSH1 0x20 ADD PUSH1 0x0 KECCAK256 PUSH1 0x0 DUP3 DUP3 SLOAD PUSH2 0x484 SWAP2 SWAP1 PUSH2 0xF84 JUMP JUMPDEST SWAP3 POP POP DUP2 SWAP1 SSTORE POP JUMPDEST CALLER PUSH1 0x4 PUSH1 0x2 PUSH2 0x100 EXP DUP2 SLOAD DUP2 PUSH20 0xFFFFFFFFFFFFFFFFFFFFFFFFFFFFFFFFFFFFFFFF MUL NOT AND SWAP1 DUP4 PUSH20 0xFFFFFFFFFFFFFFFFFFFFFFFFFFFFFFFFFFFFFFFF AND MUL OR SWAP1 SSTORE POP CALLVALUE PUSH1 0x5 DUP2 SWAP1 SSTORE POP CALLER PUSH20 0xFFFFFFFFFFFFFFFFFFFFFFFFFFFFFFFFFFFFFFFF AND PUSH32 0xE684A55F31B79ECA403DF938249029212A5925EC6BE8012E099B45BC1019E5D2 CALLVALUE PUSH1 0x40 MLOAD PUSH2 0x51A SWAP2 SWAP1 PUSH2 0xDBB JUMP JUMPDEST PUSH1 0x40 MLOAD DUP1 SWAP2 SUB SWAP1 LOG2 JUMP JUMPDEST PUSH1 0x4 PUSH1 0x0 SWAP1 SLOAD SWAP1 PUSH2 0x100 EXP SWAP1 DIV PUSH1 0xFF AND DUP2 JUMP JUMPDEST PUSH1 0x0 PUSH1 0x6 PUSH1 0x0 CALLER PUSH20 0xFFFFFFFFFFFFFFFFFFFFFFFFFFFFFFFFFFFFFFFF AND PUSH20 0xFFFFFFFFFFFFFFFFFFFFFFFFFFFFFFFFFFFFFFFF AND DUP2 MSTORE PUSH1 0x20 ADD SWAP1 DUP2 MSTORE PUSH1 0x20 ADD PUSH1 0x0 KECCAK256 SLOAD SWAP1 POP PUSH1 0x0 PUSH1 0x6 PUSH1 0x0 CALLER PUSH20 0xFFFFFFFFFFFFFFFFFFFFFFFFFFFFFFFFFFFFFFFF AND PUSH20 0xFFFFFFFFFFFFFFFFFFFFFFFFFFFFFFFFFFFFFFFF AND DUP2 MSTORE PUSH1 0x20 ADD SWAP1 DUP2 MSTORE PUSH1 0x20 ADD PUSH1 0x0 KECCAK256 DUP2 SWAP1 SSTORE POP CALLER PUSH20 0xFFFFFFFFFFFFFFFFFFFFFFFFFFFFFFFFFFFFFFFF AND PUSH2 0x8FC DUP3 SWAP1 DUP2 ISZERO MUL SWAP1 PUSH1 0x40 MLOAD PUSH1 0x0 PUSH1 0x40 MLOAD DUP1 DUP4 SUB DUP2 DUP6 DUP9 DUP9 CALL SWAP4 POP POP POP POP ISZERO DUP1 ISZERO PUSH2 0x606 JUMPI RETURNDATASIZE PUSH1 0x0 DUP1 RETURNDATACOPY RETURNDATASIZE PUSH1 0x0 REVERT JUMPDEST POP CALLER PUSH20 0xFFFFFFFFFFFFFFFFFFFFFFFFFFFFFFFFFFFFFFFF AND PUSH32 0x884EDAD9CE6FA2440D8A54CC123490EB96D2768479D49FF9C7366125A9424364 DUP3 PUSH1 0x40 MLOAD PUSH2 0x64D SWAP2 SWAP1 PUSH2 0xDBB JUMP JUMPDEST PUSH1 0x40 MLOAD DUP1 SWAP2 SUB SWAP1 LOG2 POP JUMP JUMPDEST PUSH1 0x0 DUP1 SLOAD SWAP1 PUSH2 0x100 EXP SWAP1 DIV PUSH20 0xFFFFFFFFFFFFFFFFFFFFFFFFFFFFFFFFFFFFFFFF AND DUP2 JUMP JUMPDEST PUSH1 0x6 PUSH1 0x20 MSTORE DUP1 PUSH1 0x0 MSTORE PUSH1 0x40 PUSH1 0x0 KECCAK256 PUSH1 0x0 SWAP2 POP SWAP1 POP SLOAD DUP2 JUMP JUMPDEST PUSH1 0x3 SLOAD DUP2 JUMP JUMPDEST PUSH1 0x4 PUSH1 0x2 SWAP1 SLOAD SWAP1 PUSH2 0x100 EXP SWAP1 DIV PUSH20 0xFFFFFFFFFFFFFFFFFFFFFFFFFFFFFFFFFFFFFFFF AND DUP2 JUMP JUMPDEST PUSH1 0x4 PUSH1 0x0 SWAP1 SLOAD SWAP1 PUSH2 0x100 EXP SWAP1 DIV PUSH1 0xFF AND ISZERO PUSH2 0x710 JUMPI PUSH1 0x40 MLOAD PUSH32 0x8C379A000000000000000000000000000000000000000000000000000000000 DUP2 MSTORE PUSH1 0x4 ADD PUSH2 0x707 SWAP1 PUSH2 0x1004 JUMP JUMPDEST PUSH1 0x40 MLOAD DUP1 SWAP2 SUB SWAP1 REVERT JUMPDEST PUSH1 0x2 PUSH1 0x0 SWAP1 SLOAD SWAP1 PUSH2 0x100 EXP SWAP1 DIV PUSH20 0xFFFFFFFFFFFFFFFFFFFFFFFFFFFFFFFFFFFFFFFF AND PUSH20 0xFFFFFFFFFFFFFFFFFFFFFFFFFFFFFFFFFFFFFFFF AND CALLER PUSH20 0xFFFFFFFFFFFFFFFFFFFFFFFFFFFFFFFFFFFFFFFF AND EQ PUSH2 0x7A0 JUMPI PUSH1 0x40 MLOAD PUSH32 0x8C379A000000000000000000000000000000000000000000000000000000000 DUP2 MSTORE PUSH1 0x4 ADD PUSH2 0x797 SWAP1 PUSH2 0x1070 JUMP JUMPDEST PUSH1 0x40 MLOAD DUP1 SWAP2 SUB SWAP1 REVERT JUMPDEST PUSH1 0x0 DUP1 SLOAD SWAP1 PUSH2 0x100 EXP SWAP1 DIV PUSH20 0xFFFFFFFFFFFFFFFFFFFFFFFFFFFFFFFFFFFFFFFF AND PUSH20 0xFFFFFFFFFFFFFFFFFFFFFFFFFFFFFFFFFFFFFFFF AND PUSH4 0x23B872DD CALLER ADDRESS PUSH1 0x1 SLOAD PUSH1 0x40 MLOAD DUP5 PUSH4 0xFFFFFFFF AND PUSH1 0xE0 SHL DUP2 MSTORE PUSH1 0x4 ADD PUSH2 0x7FF SWAP4 SWAP3 SWAP2 SWAP1 PUSH2 0x1090 JUMP JUMPDEST PUSH1 0x0 PUSH1 0x40 MLOAD DUP1 DUP4 SUB DUP2 PUSH1 0x0 DUP8 DUP1 EXTCODESIZE ISZERO DUP1 ISZERO PUSH2 0x819 JUMPI PUSH1 0x0 DUP1 REVERT JUMPDEST POP GAS CALL ISZERO DUP1 ISZERO PUSH2 0x82D JUMPI RETURNDATASIZE PUSH1 0x0 DUP1 RETURNDATACOPY RETURNDATASIZE PUSH1 0x0 REVERT JUMPDEST POP POP POP POP PUSH1 0x1 PUSH1 0x4 PUSH1 0x0 PUSH2 0x100 EXP DUP2 SLOAD DUP2 PUSH1 0xFF MUL NOT AND SWAP1 DUP4 ISZERO ISZERO MUL OR SWAP1 SSTORE POP PUSH3 0x93A80 TIMESTAMP PUSH2 0x85B SWAP2 SWAP1 PUSH2 0xF84 JUMP JUMPDEST PUSH1 0x3 DUP2 SWAP1 SSTORE POP PUSH32 0x1B55BA3AA851A46BE3B365AEE5B5C140EDD620D578922F3E8466D2CBD96F954B PUSH1 0x40 MLOAD PUSH1 0x40 MLOAD DUP1 SWAP2 SUB SWAP1 LOG1 JUMP JUMPDEST PUSH1 0x1 SLOAD DUP2 JUMP JUMPDEST PUSH1 0x5 SLOAD DUP2 JUMP JUMPDEST PUSH1 0x4 PUSH1 0x0 SWAP1 SLOAD SWAP1 PUSH2 0x100 EXP SWAP1 DIV PUSH1 0xFF AND PUSH2 0x8EA JUMPI PUSH1 0x40 MLOAD PUSH32 0x8C379A000000000000000000000000000000000000000000000000000000000 DUP2 MSTORE PUSH1 0x4 ADD PUSH2 0x8E1 SWAP1 PUSH2 0xE5D JUMP JUMPDEST PUSH1 0x40 MLOAD DUP1 SWAP2 SUB SWAP1 REVERT JUMPDEST PUSH1 0x3 SLOAD TIMESTAMP LT ISZERO PUSH2 0x92F JUMPI PUSH1 0x40 MLOAD PUSH32 0x8C379A000000000000000000000000000000000000000000000000000000000 DUP2 MSTORE PUSH1 0x4 ADD PUSH2 0x926 SWAP1 PUSH2 0x1113 JUMP JUMPDEST PUSH1 0x40 MLOAD DUP1 SWAP2 SUB SWAP1 REVERT JUMPDEST PUSH1 0x4 PUSH1 0x1 SWAP1 SLOAD SWAP1 PUSH2 0x100 EXP SWAP1 DIV PUSH1 0xFF AND ISZERO PUSH2 0x97F JUMPI PUSH1 0x40 MLOAD PUSH32 0x8C379A000000000000000000000000000000000000000000000000000000000 DUP2 MSTORE PUSH1 0x4 ADD PUSH2 0x976 SWAP1 PUSH2 0xEC9 JUMP JUMPDEST PUSH1 0x40 MLOAD DUP1 SWAP2 SUB SWAP1 REVERT JUMPDEST PUSH1 0x1 PUSH1 0x4 PUSH1 0x1 PUSH2 0x100 EXP DUP2 SLOAD DUP2 PUSH1 0xFF MUL NOT AND SWAP1 DUP4 ISZERO ISZERO MUL OR SWAP1 SSTORE POP PUSH1 0x0 PUSH20 0xFFFFFFFFFFFFFFFFFFFFFFFFFFFFFFFFFFFFFFFF AND PUSH1 0x4 PUSH1 0x2 SWAP1 SLOAD SWAP1 PUSH2 0x100 EXP SWAP1 DIV PUSH20 0xFFFFFFFFFFFFFFFFFFFFFFFFFFFFFFFFFFFFFFFF AND PUSH20 0xFFFFFFFFFFFFFFFFFFFFFFFFFFFFFFFFFFFFFFFF AND EQ PUSH2 0xB13 JUMPI PUSH1 0x0 DUP1 SLOAD SWAP1 PUSH2 0x100 EXP SWAP1 DIV PUSH20 0xFFFFFFFFFFFFFFFFFFFFFFFFFFFFFFFFFFFFFFFF AND PUSH20 0xFFFFFFFFFFFFFFFFFFFFFFFFFFFFFFFFFFFFFFFF AND PUSH4 0x42842E0E ADDRESS PUSH1 0x4 PUSH1 0x2 SWAP1 SLOAD SWAP1 PUSH2 0x100 EXP SWAP1 DIV PUSH20 0xFFFFFFFFFFFFFFFFFFFFFFFFFFFFFFFFFFFFFFFF AND PUSH1 0x1 SLOAD PUSH1 0x40 MLOAD DUP5 PUSH4 0xFFFFFFFF AND PUSH1 0xE0 SHL DUP2 MSTORE PUSH1 0x4 ADD PUSH2 0xA71 SWAP4 SWAP3 SWAP2 SWAP1 PUSH2 0x1090 JUMP JUMPDEST PUSH1 0x0 PUSH1 0x40 MLOAD DUP1 DUP4 SUB DUP2 PUSH1 0x0 DUP8 DUP1 EXTCODESIZE ISZERO DUP1 ISZERO PUSH2 0xA8B JUMPI PUSH1 0x0 DUP1 REVERT JUMPDEST POP GAS CALL ISZERO DUP1 ISZERO PUSH2 0xA9F JUMPI RETURNDATASIZE PUSH1 0x0 DUP1 RETURNDATACOPY RETURNDATASIZE PUSH1 0x0 REVERT JUMPDEST POP POP POP POP PUSH1 0x2 PUSH1 0x0 SWAP1 SLOAD SWAP1 PUSH2 0x100 EXP SWAP1 DIV PUSH20 0xFFFFFFFFFFFFFFFFFFFFFFFFFFFFFFFFFFFFFFFF AND PUSH20 0xFFFFFFFFFFFFFFFFFFFFFFFFFFFFFFFFFFFFFFFF AND PUSH2 0x8FC PUSH1 0x5 SLOAD SWAP1 DUP2 ISZERO MUL SWAP1 PUSH1 0x40 MLOAD PUSH1 0x0 PUSH1 0x40 MLOAD DUP1 DUP4 SUB DUP2 DUP6 DUP9 DUP9 CALL SWAP4 POP POP POP POP ISZERO DUP1 ISZERO PUSH2 0xB0D JUMPI RETURNDATASIZE PUSH1 0x0 DUP1 RETURNDATACOPY RETURNDATASIZE PUSH1 0x0 REVERT JUMPDEST POP PUSH2 0xBC7 JUMP JUMPDEST PUSH1 0x0 DUP1 SLOAD SWAP1 PUSH2 0x100 EXP SWAP1 DIV PUSH20 0xFFFFFFFFFFFFFFFFFFFFFFFFFFFFFFFFFFFFFFFF AND PUSH20 0xFFFFFFFFFFFFFFFFFFFFFFFFFFFFFFFFFFFFFFFF AND PUSH4 0x42842E0E ADDRESS PUSH1 0x2 PUSH1 0x0 SWAP1 SLOAD SWAP1 PUSH2 0x100 EXP SWAP1 DIV PUSH20 0xFFFFFFFFFFFFFFFFFFFFFFFFFFFFFFFFFFFFFFFF AND PUSH1 0x1 SLOAD PUSH1 0x40 MLOAD DUP5 PUSH4 0xFFFFFFFF AND PUSH1 0xE0 SHL DUP2 MSTORE PUSH1 0x4 ADD PUSH2 0xB94 SWAP4 SWAP3 SWAP2 SWAP1 PUSH2 0x1154 JUMP JUMPDEST PUSH1 0x0 PUSH1 0x40 MLOAD DUP1 DUP4 SUB DUP2 PUSH1 0x0 DUP8 DUP1 EXTCODESIZE ISZERO DUP1 ISZERO PUSH2 0xBAE JUMPI PUSH1 0x0 DUP1 REVERT JUMPDEST POP GAS CALL ISZERO DUP1 ISZERO PUSH2 0xBC2 JUMPI RETURNDATASIZE PUSH1 0x0 DUP1 RETURNDATACOPY RETURNDATASIZE PUSH1 0x0 REVERT JUMPDEST POP POP POP POP JUMPDEST PUSH32 0x7D7570B046E5EAD3A4F3FBC9FA2445113625A1E79823776146316BAFED6B8CC5 PUSH1 0x4 PUSH1 0x2 SWAP1 SLOAD SWAP1 PUSH2 0x100 EXP SWAP1 DIV PUSH20 0xFFFFFFFFFFFFFFFFFFFFFFFFFFFFFFFFFFFFFFFF AND PUSH1 0x5 SLOAD PUSH1 0x40 MLOAD PUSH2 0xC1C SWAP3 SWAP2 SWAP1 PUSH2 0x118B JUMP JUMPDEST PUSH1 0x40 MLOAD DUP1 SWAP2 SUB SWAP1 LOG1 JUMP JUMPDEST PUSH1 0x0 PUSH20 0xFFFFFFFFFFFFFFFFFFFFFFFFFFFFFFFFFFFFFFFF DUP3 AND SWAP1 POP SWAP2 SWAP1 POP JUMP JUMPDEST PUSH1 0x0 PUSH2 0xC51 DUP3 PUSH2 0xC26 JUMP JUMPDEST SWAP1 POP SWAP2 SWAP1 POP JUMP JUMPDEST PUSH2 0xC61 DUP2 PUSH2 0xC46 JUMP JUMPDEST DUP3 MSTORE POP POP JUMP JUMPDEST PUSH1 0x0 PUSH1 0x20 DUP3 ADD SWAP1 POP PUSH2 0xC7C PUSH1 0x0 DUP4 ADD DUP5 PUSH2 0xC58 JUMP JUMPDEST SWAP3 SWAP2 POP POP JUMP JUMPDEST PUSH1 0x0 DUP2 ISZERO ISZERO SWAP1 POP SWAP2 SWAP1 POP JUMP JUMPDEST PUSH2 0xC97 DUP2 PUSH2 0xC82 JUMP JUMPDEST DUP3 MSTORE POP POP JUMP JUMPDEST PUSH1 0x0 PUSH1 0x20 DUP3 ADD SWAP1 POP PUSH2 0xCB2 PUSH1 0x0 DUP4 ADD DUP5 PUSH2 0xC8E JUMP JUMPDEST SWAP3 SWAP2 POP POP JUMP JUMPDEST PUSH1 0x0 DUP2 SWAP1 POP SWAP2 SWAP1 POP JUMP JUMPDEST PUSH1 0x0 PUSH2 0xCDD PUSH2 0xCD8 PUSH2 0xCD3 DUP5 PUSH2 0xC26 JUMP JUMPDEST PUSH2 0xCB8 JUMP JUMPDEST PUSH2 0xC26 JUMP JUMPDEST SWAP1 POP SWAP2 SWAP1 POP JUMP JUMPDEST PUSH1 0x0 PUSH2 0xCEF DUP3 PUSH2 0xCC2 JUMP JUMPDEST SWAP1 POP SWAP2 SWAP1 POP JUMP JUMPDEST PUSH1 0x0 PUSH2 0xD01 DUP3 PUSH2 0xCE4 JUMP JUMPDEST SWAP1 POP SWAP2 SWAP1 POP JUMP JUMPDEST PUSH2 0xD11 DUP2 PUSH2 0xCF6 JUMP JUMPDEST DUP3 MSTORE POP POP JUMP JUMPDEST PUSH1 0x0 PUSH1 0x20 DUP3 ADD SWAP1 POP PUSH2 0xD2C PUSH1 0x0 DUP4 ADD DUP5 PUSH2 0xD08 JUMP JUMPDEST SWAP3 SWAP2 POP POP JUMP JUMPDEST PUSH1 0x0 DUP1 REVERT JUMPDEST PUSH1 0x0 PUSH2 0xD42 DUP3 PUSH2 0xC26 JUMP JUMPDEST SWAP1 POP SWAP2 SWAP1 POP JUMP JUMPDEST PUSH2 0xD52 DUP2 PUSH2 0xD37 JUMP JUMPDEST DUP2 EQ PUSH2 0xD5D JUMPI PUSH1 0x0 DUP1 REVERT JUMPDEST POP JUMP JUMPDEST PUSH1 0x0 DUP2 CALLDATALOAD SWAP1 POP PUSH2 0xD6F DUP2 PUSH2 0xD49 JUMP JUMPDEST SWAP3 SWAP2 POP POP JUMP JUMPDEST PUSH1 0x0 PUSH1 0x20 DUP3 DUP5 SUB SLT ISZERO PUSH2 0xD8B JUMPI PUSH2 0xD8A PUSH2 0xD32 JUMP JUMPDEST JUMPDEST PUSH1 0x0 PUSH2 0xD99 DUP5 DUP3 DUP6 ADD PUSH2 0xD60 JUMP JUMPDEST SWAP2 POP POP SWAP3 SWAP2 POP POP JUMP JUMPDEST PUSH1 0x0 DUP2 SWAP1 POP SWAP2 SWAP1 POP JUMP JUMPDEST PUSH2 0xDB5 DUP2 PUSH2 0xDA2 JUMP JUMPDEST DUP3 MSTORE POP POP JUMP JUMPDEST PUSH1 0x0 PUSH1 0x20 DUP3 ADD SWAP1 POP PUSH2 0xDD0 PUSH1 0x0 DUP4 ADD DUP5 PUSH2 0xDAC JUMP JUMPDEST SWAP3 SWAP2 POP POP JUMP JUMPDEST PUSH2 0xDDF DUP2 PUSH2 0xD37 JUMP JUMPDEST DUP3 MSTORE POP POP JUMP JUMPDEST PUSH1 0x0 PUSH1 0x20 DUP3 ADD SWAP1 POP PUSH2 0xDFA PUSH1 0x0 DUP4 ADD DUP5 PUSH2 0xDD6 JUMP JUMPDEST SWAP3 SWAP2 POP POP JUMP JUMPDEST PUSH1 0x0 DUP3 DUP3 MSTORE PUSH1 0x20 DUP3 ADD SWAP1 POP SWAP3 SWAP2 POP POP JUMP JUMPDEST PUSH32 0x6E6F742073746172746564000000000000000000000000000000000000000000 PUSH1 0x0 DUP3 ADD MSTORE POP JUMP JUMPDEST PUSH1 0x0 PUSH2 0xE47 PUSH1 0xB DUP4 PUSH2 0xE00 JUMP JUMPDEST SWAP2 POP PUSH2 0xE52 DUP3 PUSH2 0xE11 JUMP JUMPDEST PUSH1 0x20 DUP3 ADD SWAP1 POP SWAP2 SWAP1 POP JUMP JUMPDEST PUSH1 0x0 PUSH1 0x20 DUP3 ADD SWAP1 POP DUP2 DUP2 SUB PUSH1 0x0 DUP4 ADD MSTORE PUSH2 0xE76 DUP2 PUSH2 0xE3A JUMP JUMPDEST SWAP1 POP SWAP2 SWAP1 POP JUMP JUMPDEST PUSH32 0x656E646564000000000000000000000000000000000000000000000000000000 PUSH1 0x0 DUP3 ADD MSTORE POP JUMP JUMPDEST PUSH1 0x0 PUSH2 0xEB3 PUSH1 0x5 DUP4 PUSH2 0xE00 JUMP JUMPDEST SWAP2 POP PUSH2 0xEBE DUP3 PUSH2 0xE7D JUMP JUMPDEST PUSH1 0x20 DUP3 ADD SWAP1 POP SWAP2 SWAP1 POP JUMP JUMPDEST PUSH1 0x0 PUSH1 0x20 DUP3 ADD SWAP1 POP DUP2 DUP2 SUB PUSH1 0x0 DUP4 ADD MSTORE PUSH2 0xEE2 DUP2 PUSH2 0xEA6 JUMP JUMPDEST SWAP1 POP SWAP2 SWAP1 POP JUMP JUMPDEST PUSH32 0x76616C7565203C20686967686573740000000000000000000000000000000000 PUSH1 0x0 DUP3 ADD MSTORE POP JUMP JUMPDEST PUSH1 0x0 PUSH2 0xF1F PUSH1 0xF DUP4 PUSH2 0xE00 JUMP JUMPDEST SWAP2 POP PUSH2 0xF2A DUP3 PUSH2 0xEE9 JUMP JUMPDEST PUSH1 0x20 DUP3 ADD SWAP1 POP SWAP2 SWAP1 POP JUMP JUMPDEST PUSH1 0x0 PUSH1 0x20 DUP3 ADD SWAP1 POP DUP2 DUP2 SUB PUSH1 0x0 DUP4 ADD MSTORE PUSH2 0xF4E DUP2 PUSH2 0xF12 JUMP JUMPDEST SWAP1 POP SWAP2 SWAP1 POP JUMP JUMPDEST PUSH32 0x4E487B7100000000000000000000000000000000000000000000000000000000 PUSH1 0x0 MSTORE PUSH1 0x11 PUSH1 0x4 MSTORE PUSH1 0x24 PUSH1 0x0 REVERT JUMPDEST PUSH1 0x0 PUSH2 0xF8F DUP3 PUSH2 0xDA2 JUMP JUMPDEST SWAP2 POP PUSH2 0xF9A DUP4 PUSH2 0xDA2 JUMP JUMPDEST SWAP3 POP DUP3 DUP3 ADD SWAP1 POP DUP1 DUP3 GT ISZERO PUSH2 0xFB2 JUMPI PUSH2 0xFB1 PUSH2 0xF55 JUMP JUMPDEST JUMPDEST SWAP3 SWAP2 POP POP JUMP JUMPDEST PUSH32 0x7374617274656400000000000000000000000000000000000000000000000000 PUSH1 0x0 DUP3 ADD MSTORE POP JUMP JUMPDEST PUSH1 0x0 PUSH2 0xFEE PUSH1 0x7 DUP4 PUSH2 0xE00 JUMP JUMPDEST SWAP2 POP PUSH2 0xFF9 DUP3 PUSH2 0xFB8 JUMP JUMPDEST PUSH1 0x20 DUP3 ADD SWAP1 POP SWAP2 SWAP1 POP JUMP JUMPDEST PUSH1 0x0 PUSH1 0x20 DUP3 ADD SWAP1 POP DUP2 DUP2 SUB PUSH1 0x0 DUP4 ADD MSTORE PUSH2 0x101D DUP2 PUSH2 0xFE1 JUMP JUMPDEST SWAP1 POP SWAP2 SWAP1 POP JUMP JUMPDEST PUSH32 0x6E6F742073656C6C657200000000000000000000000000000000000000000000 PUSH1 0x0 DUP3 ADD MSTORE POP JUMP JUMPDEST PUSH1 0x0 PUSH2 0x105A PUSH1 0xA DUP4 PUSH2 0xE00 JUMP JUMPDEST SWAP2 POP PUSH2 0x1065 DUP3 PUSH2 0x1024 JUMP JUMPDEST PUSH1 0x20 DUP3 ADD SWAP1 POP SWAP2 SWAP1 POP JUMP JUMPDEST PUSH1 0x0 PUSH1 0x20 DUP3 ADD SWAP1 POP DUP2 DUP2 SUB PUSH1 0x0 DUP4 ADD MSTORE PUSH2 0x1089 DUP2 PUSH2 0x104D JUMP JUMPDEST SWAP1 POP SWAP2 SWAP1 POP JUMP JUMPDEST PUSH1 0x0 PUSH1 0x60 DUP3 ADD SWAP1 POP PUSH2 0x10A5 PUSH1 0x0 DUP4 ADD DUP7 PUSH2 0xDD6 JUMP JUMPDEST PUSH2 0x10B2 PUSH1 0x20 DUP4 ADD DUP6 PUSH2 0xDD6 JUMP JUMPDEST PUSH2 0x10BF PUSH1 0x40 DUP4 ADD DUP5 PUSH2 0xDAC JUMP JUMPDEST SWAP5 SWAP4 POP POP POP POP JUMP JUMPDEST PUSH32 0x6E6F7420656E6465640000000000000000000000000000000000000000000000 PUSH1 0x0 DUP3 ADD MSTORE POP JUMP JUMPDEST PUSH1 0x0 PUSH2 0x10FD PUSH1 0x9 DUP4 PUSH2 0xE00 JUMP JUMPDEST SWAP2 POP PUSH2 0x1108 DUP3 PUSH2 0x10C7 JUMP JUMPDEST PUSH1 0x20 DUP3 ADD SWAP1 POP SWAP2 SWAP1 POP JUMP JUMPDEST PUSH1 0x0 PUSH1 0x20 DUP3 ADD SWAP1 POP DUP2 DUP2 SUB PUSH1 0x0 DUP4 ADD MSTORE PUSH2 0x112C DUP2 PUSH2 0x10F0 JUMP JUMPDEST SWAP1 POP SWAP2 SWAP1 POP JUMP JUMPDEST PUSH1 0x0 PUSH2 0x113E DUP3 PUSH2 0xCE4 JUMP JUMPDEST SWAP1 POP SWAP2 SWAP1 POP JUMP JUMPDEST PUSH2 0x114E DUP2 PUSH2 0x1133 JUMP JUMPDEST DUP3 MSTORE POP POP JUMP JUMPDEST PUSH1 0x0 PUSH1 0x60 DUP3 ADD SWAP1 POP PUSH2 0x1169 PUSH1 0x0 DUP4 ADD DUP7 PUSH2 0xDD6 JUMP JUMPDEST PUSH2 0x1176 PUSH1 0x20 DUP4 ADD DUP6 PUSH2 0x1145 JUMP JUMPDEST PUSH2 0x1183 PUSH1 0x40 DUP4 ADD DUP5 PUSH2 0xDAC JUMP JUMPDEST SWAP5 SWAP4 POP POP POP POP JUMP JUMPDEST PUSH1 0x0 PUSH1 0x40 DUP3 ADD SWAP1 POP PUSH2 0x11A0 PUSH1 0x0 DUP4 ADD DUP6 PUSH2 0xDD6 JUMP JUMPDEST PUSH2 0x11AD PUSH1 0x20 DUP4 ADD DUP5 PUSH2 0xDAC JUMP JUMPDEST SWAP4 SWAP3 POP POP POP JUMP INVALID LOG2 PUSH5 0x6970667358 0x22 SLT KECCAK256 AND XOR 0xCF CALLDATALOAD 0xD0 CALL 0x2D DUP14 0xDC PUSH6 0xD594D16974B8 0xE5 0xB1 EXTCODECOPY 0xD3 0xC0 PC 0xC9 0x2D 0xB0 PREVRANDAO 0x2C PUSH3 0x2899B2 SWAP15 PUSH5 0x736F6C6343 STOP ADDMOD SLT STOP CALLER "
				},
				"gasEstimates": {
					"creation": {
						"codeDepositCost": "917200",
						"executionCost": "infinite",
						"totalCost": "infinite"
					},
					"external": {
						"bid()": "infinite",
						"bids(address)": "2837",
						"end()": "infinite",
						"endAt()": "2474",
						"ended()": "2544",
						"highestBid()": "2495",
						"highestBidder()": "2631",
						"nft()": "infinite",
						"nftId()": "2473",
						"seller()": "2515",
						"start()": "infinite",
						"started()": "2538",
						"withdraw()": "infinite"
					}
				},
				"methodIdentifiers": {
					"bid()": "1998aeef",
					"bids(address)": "62ea82db",
					"end()": "efbe1c1c",
					"endAt()": "7cc3ae8c",
					"ended()": "12fa6feb",
					"highestBid()": "d57bde79",
					"highestBidder()": "91f90157",
					"nft()": "47ccca02",
					"nftId()": "c6bc5182",
					"seller()": "08551a53",
					"start()": "be9a6555",
					"started()": "1f2698ab",
					"withdraw()": "3ccfd60b"
				}
			},
			"storageLayout": {
				"storage": [
					{
						"astId": 43,
						"contract": "EnglishAuction.sol:EnglishAuction",
						"label": "nft",
						"offset": 0,
						"slot": "0",
						"type": "t_contract(IERC721)20"
					},
					{
						"astId": 45,
						"contract": "EnglishAuction.sol:EnglishAuction",
						"label": "nftId",
						"offset": 0,
						"slot": "1",
						"type": "t_uint256"
					},
					{
						"astId": 47,
						"contract": "EnglishAuction.sol:EnglishAuction",
						"label": "seller",
						"offset": 0,
						"slot": "2",
						"type": "t_address_payable"
					},
					{
						"astId": 49,
						"contract": "EnglishAuction.sol:EnglishAuction",
						"label": "endAt",
						"offset": 0,
						"slot": "3",
						"type": "t_uint256"
					},
					{
						"astId": 51,
						"contract": "EnglishAuction.sol:EnglishAuction",
						"label": "started",
						"offset": 0,
						"slot": "4",
						"type": "t_bool"
					},
					{
						"astId": 53,
						"contract": "EnglishAuction.sol:EnglishAuction",
						"label": "ended",
						"offset": 1,
						"slot": "4",
						"type": "t_bool"
					},
					{
						"astId": 55,
						"contract": "EnglishAuction.sol:EnglishAuction",
						"label": "highestBidder",
						"offset": 2,
						"slot": "4",
						"type": "t_address"
					},
					{
						"astId": 57,
						"contract": "EnglishAuction.sol:EnglishAuction",
						"label": "highestBid",
						"offset": 0,
						"slot": "5",
						"type": "t_uint256"
					},
					{
						"astId": 61,
						"contract": "EnglishAuction.sol:EnglishAuction",
						"label": "bids",
						"offset": 0,
						"slot": "6",
						"type": "t_mapping(t_address,t_uint256)"
					}
				],
				"types": {
					"t_address": {
						"encoding": "inplace",
						"label": "address",
						"numberOfBytes": "20"
					},
					"t_address_payable": {
						"encoding": "inplace",
						"label": "address payable",
						"numberOfBytes": "20"
					},
					"t_bool": {
						"encoding": "inplace",
						"label": "bool",
						"numberOfBytes": "1"
					},
					"t_contract(IERC721)20": {
						"encoding": "inplace",
						"label": "contract IERC721",
						"numberOfBytes": "20"
					},
					"t_mapping(t_address,t_uint256)": {
						"encoding": "mapping",
						"key": "t_address",
						"label": "mapping(address => uint256)",
						"numberOfBytes": "32",
						"value": "t_uint256"
					},
					"t_uint256": {
						"encoding": "inplace",
						"label": "uint256",
						"numberOfBytes": "32"
					}
				}
			},
			"userdoc": {
				"kind": "user",
				"methods": {},
				"version": 1
			}
		}
	}
}